{
  "contractName": "TestcoinSwapRouter",
  "abi": [
    {
      "inputs": [
        {
          "internalType": "address",
          "name": "_factory",
          "type": "address"
        },
        {
          "internalType": "address",
          "name": "_WBNB",
          "type": "address"
        }
      ],
      "stateMutability": "nonpayable",
      "type": "constructor"
    },
    {
      "inputs": [],
      "name": "WBNB",
      "outputs": [
        {
          "internalType": "address",
          "name": "",
          "type": "address"
        }
      ],
      "stateMutability": "view",
      "type": "function"
    },
    {
      "inputs": [],
      "name": "factory",
      "outputs": [
        {
          "internalType": "address",
          "name": "",
          "type": "address"
        }
      ],
      "stateMutability": "view",
      "type": "function"
    },
    {
      "stateMutability": "payable",
      "type": "receive"
    },
    {
      "inputs": [
        {
          "internalType": "address",
          "name": "tokenA",
          "type": "address"
        },
        {
          "internalType": "address",
          "name": "tokenB",
          "type": "address"
        },
        {
          "internalType": "uint256",
          "name": "amountADesired",
          "type": "uint256"
        },
        {
          "internalType": "uint256",
          "name": "amountBDesired",
          "type": "uint256"
        },
        {
          "internalType": "uint256",
          "name": "amountAMin",
          "type": "uint256"
        },
        {
          "internalType": "uint256",
          "name": "amountBMin",
          "type": "uint256"
        },
        {
          "internalType": "address",
          "name": "to",
          "type": "address"
        },
        {
          "internalType": "uint256",
          "name": "deadline",
          "type": "uint256"
        }
      ],
      "name": "addLiquidity",
      "outputs": [
        {
          "internalType": "uint256",
          "name": "amountA",
          "type": "uint256"
        },
        {
          "internalType": "uint256",
          "name": "amountB",
          "type": "uint256"
        },
        {
          "internalType": "uint256",
          "name": "liquidity",
          "type": "uint256"
        }
      ],
      "stateMutability": "nonpayable",
      "type": "function"
    },
    {
      "inputs": [
        {
          "internalType": "address",
          "name": "token",
          "type": "address"
        },
        {
          "internalType": "uint256",
          "name": "amountTokenDesired",
          "type": "uint256"
        },
        {
          "internalType": "uint256",
          "name": "amountTokenMin",
          "type": "uint256"
        },
        {
          "internalType": "uint256",
          "name": "amountBNBMin",
          "type": "uint256"
        },
        {
          "internalType": "address",
          "name": "to",
          "type": "address"
        },
        {
          "internalType": "uint256",
          "name": "deadline",
          "type": "uint256"
        }
      ],
      "name": "addLiquidityBNB",
      "outputs": [
        {
          "internalType": "uint256",
          "name": "amountToken",
          "type": "uint256"
        },
        {
          "internalType": "uint256",
          "name": "amountBNB",
          "type": "uint256"
        },
        {
          "internalType": "uint256",
          "name": "liquidity",
          "type": "uint256"
        }
      ],
      "stateMutability": "payable",
      "type": "function"
    },
    {
      "inputs": [
        {
          "internalType": "address",
          "name": "tokenA",
          "type": "address"
        },
        {
          "internalType": "address",
          "name": "tokenB",
          "type": "address"
        },
        {
          "internalType": "uint256",
          "name": "liquidity",
          "type": "uint256"
        },
        {
          "internalType": "uint256",
          "name": "amountAMin",
          "type": "uint256"
        },
        {
          "internalType": "uint256",
          "name": "amountBMin",
          "type": "uint256"
        },
        {
          "internalType": "address",
          "name": "to",
          "type": "address"
        },
        {
          "internalType": "uint256",
          "name": "deadline",
          "type": "uint256"
        }
      ],
      "name": "removeLiquidity",
      "outputs": [
        {
          "internalType": "uint256",
          "name": "amountA",
          "type": "uint256"
        },
        {
          "internalType": "uint256",
          "name": "amountB",
          "type": "uint256"
        }
      ],
      "stateMutability": "nonpayable",
      "type": "function"
    },
    {
      "inputs": [
        {
          "internalType": "address",
          "name": "token",
          "type": "address"
        },
        {
          "internalType": "uint256",
          "name": "liquidity",
          "type": "uint256"
        },
        {
          "internalType": "uint256",
          "name": "amountTokenMin",
          "type": "uint256"
        },
        {
          "internalType": "uint256",
          "name": "amountBNBMin",
          "type": "uint256"
        },
        {
          "internalType": "address",
          "name": "to",
          "type": "address"
        },
        {
          "internalType": "uint256",
          "name": "deadline",
          "type": "uint256"
        }
      ],
      "name": "removeLiquidityBNB",
      "outputs": [
        {
          "internalType": "uint256",
          "name": "amountToken",
          "type": "uint256"
        },
        {
          "internalType": "uint256",
          "name": "amountBNB",
          "type": "uint256"
        }
      ],
      "stateMutability": "nonpayable",
      "type": "function"
    },
    {
      "inputs": [
        {
          "internalType": "address",
          "name": "tokenA",
          "type": "address"
        },
        {
          "internalType": "address",
          "name": "tokenB",
          "type": "address"
        },
        {
          "internalType": "uint256",
          "name": "liquidity",
          "type": "uint256"
        },
        {
          "internalType": "uint256",
          "name": "amountAMin",
          "type": "uint256"
        },
        {
          "internalType": "uint256",
          "name": "amountBMin",
          "type": "uint256"
        },
        {
          "internalType": "address",
          "name": "to",
          "type": "address"
        },
        {
          "internalType": "uint256",
          "name": "deadline",
          "type": "uint256"
        },
        {
          "internalType": "bool",
          "name": "approveMax",
          "type": "bool"
        },
        {
          "internalType": "uint8",
          "name": "v",
          "type": "uint8"
        },
        {
          "internalType": "bytes32",
          "name": "r",
          "type": "bytes32"
        },
        {
          "internalType": "bytes32",
          "name": "s",
          "type": "bytes32"
        }
      ],
      "name": "removeLiquidityWithPermit",
      "outputs": [
        {
          "internalType": "uint256",
          "name": "amountA",
          "type": "uint256"
        },
        {
          "internalType": "uint256",
          "name": "amountB",
          "type": "uint256"
        }
      ],
      "stateMutability": "nonpayable",
      "type": "function"
    },
    {
      "inputs": [
        {
          "internalType": "address",
          "name": "token",
          "type": "address"
        },
        {
          "internalType": "uint256",
          "name": "liquidity",
          "type": "uint256"
        },
        {
          "internalType": "uint256",
          "name": "amountTokenMin",
          "type": "uint256"
        },
        {
          "internalType": "uint256",
          "name": "amountBNBMin",
          "type": "uint256"
        },
        {
          "internalType": "address",
          "name": "to",
          "type": "address"
        },
        {
          "internalType": "uint256",
          "name": "deadline",
          "type": "uint256"
        },
        {
          "internalType": "bool",
          "name": "approveMax",
          "type": "bool"
        },
        {
          "internalType": "uint8",
          "name": "v",
          "type": "uint8"
        },
        {
          "internalType": "bytes32",
          "name": "r",
          "type": "bytes32"
        },
        {
          "internalType": "bytes32",
          "name": "s",
          "type": "bytes32"
        }
      ],
      "name": "removeLiquidityBNBWithPermit",
      "outputs": [
        {
          "internalType": "uint256",
          "name": "amountToken",
          "type": "uint256"
        },
        {
          "internalType": "uint256",
          "name": "amountBNB",
          "type": "uint256"
        }
      ],
      "stateMutability": "nonpayable",
      "type": "function"
    },
    {
      "inputs": [
        {
          "internalType": "address",
          "name": "token",
          "type": "address"
        },
        {
          "internalType": "uint256",
          "name": "liquidity",
          "type": "uint256"
        },
        {
          "internalType": "uint256",
          "name": "amountTokenMin",
          "type": "uint256"
        },
        {
          "internalType": "uint256",
          "name": "amountBNBMin",
          "type": "uint256"
        },
        {
          "internalType": "address",
          "name": "to",
          "type": "address"
        },
        {
          "internalType": "uint256",
          "name": "deadline",
          "type": "uint256"
        }
      ],
      "name": "removeLiquidityBNBSupportingFeeOnTransferTokens",
      "outputs": [
        {
          "internalType": "uint256",
          "name": "amountBNB",
          "type": "uint256"
        }
      ],
      "stateMutability": "nonpayable",
      "type": "function"
    },
    {
      "inputs": [
        {
          "internalType": "address",
          "name": "token",
          "type": "address"
        },
        {
          "internalType": "uint256",
          "name": "liquidity",
          "type": "uint256"
        },
        {
          "internalType": "uint256",
          "name": "amountTokenMin",
          "type": "uint256"
        },
        {
          "internalType": "uint256",
          "name": "amountBNBMin",
          "type": "uint256"
        },
        {
          "internalType": "address",
          "name": "to",
          "type": "address"
        },
        {
          "internalType": "uint256",
          "name": "deadline",
          "type": "uint256"
        },
        {
          "internalType": "bool",
          "name": "approveMax",
          "type": "bool"
        },
        {
          "internalType": "uint8",
          "name": "v",
          "type": "uint8"
        },
        {
          "internalType": "bytes32",
          "name": "r",
          "type": "bytes32"
        },
        {
          "internalType": "bytes32",
          "name": "s",
          "type": "bytes32"
        }
      ],
      "name": "removeLiquidityBNBWithPermitSupportingFeeOnTransferTokens",
      "outputs": [
        {
          "internalType": "uint256",
          "name": "amountBNB",
          "type": "uint256"
        }
      ],
      "stateMutability": "nonpayable",
      "type": "function"
    },
    {
      "inputs": [
        {
          "internalType": "uint256",
          "name": "amountIn",
          "type": "uint256"
        },
        {
          "internalType": "uint256",
          "name": "amountOutMin",
          "type": "uint256"
        },
        {
          "internalType": "address[]",
          "name": "path",
          "type": "address[]"
        },
        {
          "internalType": "address",
          "name": "to",
          "type": "address"
        },
        {
          "internalType": "uint256",
          "name": "deadline",
          "type": "uint256"
        }
      ],
      "name": "swapExactTokensForTokens",
      "outputs": [
        {
          "internalType": "uint256[]",
          "name": "amounts",
          "type": "uint256[]"
        }
      ],
      "stateMutability": "nonpayable",
      "type": "function"
    },
    {
      "inputs": [
        {
          "internalType": "uint256",
          "name": "amountOut",
          "type": "uint256"
        },
        {
          "internalType": "uint256",
          "name": "amountInMax",
          "type": "uint256"
        },
        {
          "internalType": "address[]",
          "name": "path",
          "type": "address[]"
        },
        {
          "internalType": "address",
          "name": "to",
          "type": "address"
        },
        {
          "internalType": "uint256",
          "name": "deadline",
          "type": "uint256"
        }
      ],
      "name": "swapTokensForExactTokens",
      "outputs": [
        {
          "internalType": "uint256[]",
          "name": "amounts",
          "type": "uint256[]"
        }
      ],
      "stateMutability": "nonpayable",
      "type": "function"
    },
    {
      "inputs": [
        {
          "internalType": "uint256",
          "name": "amountOutMin",
          "type": "uint256"
        },
        {
          "internalType": "address[]",
          "name": "path",
          "type": "address[]"
        },
        {
          "internalType": "address",
          "name": "to",
          "type": "address"
        },
        {
          "internalType": "uint256",
          "name": "deadline",
          "type": "uint256"
        }
      ],
      "name": "swapExactBNBForTokens",
      "outputs": [
        {
          "internalType": "uint256[]",
          "name": "amounts",
          "type": "uint256[]"
        }
      ],
      "stateMutability": "payable",
      "type": "function"
    },
    {
      "inputs": [
        {
          "internalType": "uint256",
          "name": "amountOut",
          "type": "uint256"
        },
        {
          "internalType": "uint256",
          "name": "amountInMax",
          "type": "uint256"
        },
        {
          "internalType": "address[]",
          "name": "path",
          "type": "address[]"
        },
        {
          "internalType": "address",
          "name": "to",
          "type": "address"
        },
        {
          "internalType": "uint256",
          "name": "deadline",
          "type": "uint256"
        }
      ],
      "name": "swapTokensForExactBNB",
      "outputs": [
        {
          "internalType": "uint256[]",
          "name": "amounts",
          "type": "uint256[]"
        }
      ],
      "stateMutability": "nonpayable",
      "type": "function"
    },
    {
      "inputs": [
        {
          "internalType": "uint256",
          "name": "amountIn",
          "type": "uint256"
        },
        {
          "internalType": "uint256",
          "name": "amountOutMin",
          "type": "uint256"
        },
        {
          "internalType": "address[]",
          "name": "path",
          "type": "address[]"
        },
        {
          "internalType": "address",
          "name": "to",
          "type": "address"
        },
        {
          "internalType": "uint256",
          "name": "deadline",
          "type": "uint256"
        }
      ],
      "name": "swapExactTokensForBNB",
      "outputs": [
        {
          "internalType": "uint256[]",
          "name": "amounts",
          "type": "uint256[]"
        }
      ],
      "stateMutability": "nonpayable",
      "type": "function"
    },
    {
      "inputs": [
        {
          "internalType": "uint256",
          "name": "amountOut",
          "type": "uint256"
        },
        {
          "internalType": "address[]",
          "name": "path",
          "type": "address[]"
        },
        {
          "internalType": "address",
          "name": "to",
          "type": "address"
        },
        {
          "internalType": "uint256",
          "name": "deadline",
          "type": "uint256"
        }
      ],
      "name": "swapBNBForExactTokens",
      "outputs": [
        {
          "internalType": "uint256[]",
          "name": "amounts",
          "type": "uint256[]"
        }
      ],
      "stateMutability": "payable",
      "type": "function"
    },
    {
      "inputs": [
        {
          "internalType": "uint256",
          "name": "amountIn",
          "type": "uint256"
        },
        {
          "internalType": "uint256",
          "name": "amountOutMin",
          "type": "uint256"
        },
        {
          "internalType": "address[]",
          "name": "path",
          "type": "address[]"
        },
        {
          "internalType": "address",
          "name": "to",
          "type": "address"
        },
        {
          "internalType": "uint256",
          "name": "deadline",
          "type": "uint256"
        }
      ],
      "name": "swapExactTokensForTokensSupportingFeeOnTransferTokens",
      "outputs": [],
      "stateMutability": "nonpayable",
      "type": "function"
    },
    {
      "inputs": [
        {
          "internalType": "uint256",
          "name": "amountOutMin",
          "type": "uint256"
        },
        {
          "internalType": "address[]",
          "name": "path",
          "type": "address[]"
        },
        {
          "internalType": "address",
          "name": "to",
          "type": "address"
        },
        {
          "internalType": "uint256",
          "name": "deadline",
          "type": "uint256"
        }
      ],
      "name": "swapExactBNBForTokensSupportingFeeOnTransferTokens",
      "outputs": [],
      "stateMutability": "payable",
      "type": "function"
    },
    {
      "inputs": [
        {
          "internalType": "uint256",
          "name": "amountIn",
          "type": "uint256"
        },
        {
          "internalType": "uint256",
          "name": "amountOutMin",
          "type": "uint256"
        },
        {
          "internalType": "address[]",
          "name": "path",
          "type": "address[]"
        },
        {
          "internalType": "address",
          "name": "to",
          "type": "address"
        },
        {
          "internalType": "uint256",
          "name": "deadline",
          "type": "uint256"
        }
      ],
      "name": "swapExactTokensForBNBSupportingFeeOnTransferTokens",
      "outputs": [],
      "stateMutability": "nonpayable",
      "type": "function"
    },
    {
      "inputs": [
        {
          "internalType": "uint256",
          "name": "amountA",
          "type": "uint256"
        },
        {
          "internalType": "uint256",
          "name": "reserveA",
          "type": "uint256"
        },
        {
          "internalType": "uint256",
          "name": "reserveB",
          "type": "uint256"
        }
      ],
      "name": "quote",
      "outputs": [
        {
          "internalType": "uint256",
          "name": "amountB",
          "type": "uint256"
        }
      ],
      "stateMutability": "pure",
      "type": "function"
    },
    {
      "inputs": [
        {
          "internalType": "uint256",
          "name": "amountIn",
          "type": "uint256"
        },
        {
          "internalType": "uint256",
          "name": "reserveIn",
          "type": "uint256"
        },
        {
          "internalType": "uint256",
          "name": "reserveOut",
          "type": "uint256"
        }
      ],
      "name": "getAmountOut",
      "outputs": [
        {
          "internalType": "uint256",
          "name": "amountOut",
          "type": "uint256"
        }
      ],
      "stateMutability": "pure",
      "type": "function"
    },
    {
      "inputs": [
        {
          "internalType": "uint256",
          "name": "amountOut",
          "type": "uint256"
        },
        {
          "internalType": "uint256",
          "name": "reserveIn",
          "type": "uint256"
        },
        {
          "internalType": "uint256",
          "name": "reserveOut",
          "type": "uint256"
        }
      ],
      "name": "getAmountIn",
      "outputs": [
        {
          "internalType": "uint256",
          "name": "amountIn",
          "type": "uint256"
        }
      ],
      "stateMutability": "pure",
      "type": "function"
    },
    {
      "inputs": [
        {
          "internalType": "uint256",
          "name": "amountIn",
          "type": "uint256"
        },
        {
          "internalType": "address[]",
          "name": "path",
          "type": "address[]"
        }
      ],
      "name": "getAmountsOut",
      "outputs": [
        {
          "internalType": "uint256[]",
          "name": "amounts",
          "type": "uint256[]"
        }
      ],
      "stateMutability": "view",
      "type": "function"
    },
    {
      "inputs": [
        {
          "internalType": "uint256",
          "name": "amountOut",
          "type": "uint256"
        },
        {
          "internalType": "address[]",
          "name": "path",
          "type": "address[]"
        }
      ],
      "name": "getAmountsIn",
      "outputs": [
        {
          "internalType": "uint256[]",
          "name": "amounts",
          "type": "uint256[]"
        }
      ],
      "stateMutability": "view",
      "type": "function"
    }
  ],
  "bytecode": "0x60c06040523480156200001157600080fd5b5060405162006bb438038062006bb4833981810160405260408110156200003757600080fd5b8101908080519060200190929190805190602001909291905050508173ffffffffffffffffffffffffffffffffffffffff1660808173ffffffffffffffffffffffffffffffffffffffff1660601b815250508073ffffffffffffffffffffffffffffffffffffffff1660a08173ffffffffffffffffffffffffffffffffffffffff1660601b81525050505060805160601c60a05160601c6169ab620002096000398061015652806116f05280611b535280611c425280611cc352806124e652806127c452806128ba5280612aa55280612c6a5280612cff5280613190528061322d52806133f5528061348a52806136eb52806137de5280613ccf5280613ebc5280613fef528061410752806143e2528061452e528061456c5280614832528061488b52806148bf5280614940525080611511528061154952806116ce52806118e552806119f15280611d02528061215e52806125d852806126e452806128985280612b925280612d3e5280612f9c52806130a5528061331a52806134c952806138fd5280613bff5280613c285280613def52806141f9528061430252806146a452806148695280615328528061536c528061556152806157c852806160bb52806161e352806162f952506169ab6000f3fe60806040526004361061014f5760003560e01c80638dd95002116100b6578063d06ca61f1161006f578063d06ca61f14610fab578063d46d2f83146110cf578063d67b571e14611193578063e0588488146112ac578063e8e3370014611360578063eaaed44214611446576101ab565b80638dd9500214610c175780639cf6891114610c6e578063ad615dec14610d70578063b7e6594914610dd3578063baa2abde14610e80578063c45a015514610f54576101ab565b80635c11d795116101085780635c11d795146106e15780635d616c5b146107a5578063685a0a34146108be5780638332a9631461099957806385f8c25914610a9b5780638803dbee14610afe576101ab565b8063054d50d4146101b05780631f00ca74146102135780632195995c1461033757806334a0772d1461043957806338ed17391461051b57806350e27df314610634576101ab565b366101ab577f000000000000000000000000000000000000000000000000000000000000000073ffffffffffffffffffffffffffffffffffffffff163373ffffffffffffffffffffffffffffffffffffffff16146101a957fe5b005b600080fd5b3480156101bc57600080fd5b506101fd600480360360608110156101d357600080fd5b810190808035906020019092919080359060200190929190803590602001909291905050506114f4565b6040518082815260200191505060405180910390f35b34801561021f57600080fd5b506102e06004803603604081101561023657600080fd5b81019080803590602001909291908035906020019064010000000081111561025d57600080fd5b82018360208201111561026f57600080fd5b8035906020019184602083028401116401000000008311171561029157600080fd5b919080806020026020016040519081016040528093929190818152602001838360200280828437600081840152601f19601f82011690508083019250505050505050919291929050505061150a565b6040518080602001828103825283818151815260200191508051906020019060200280838360005b83811015610323578082015181840152602081019050610308565b505050509050019250505060405180910390f35b34801561034357600080fd5b5061041c600480360361016081101561035b57600080fd5b81019080803573ffffffffffffffffffffffffffffffffffffffff169060200190929190803573ffffffffffffffffffffffffffffffffffffffff169060200190929190803590602001909291908035906020019092919080359060200190929190803573ffffffffffffffffffffffffffffffffffffffff16906020019092919080359060200190929190803515159060200190929190803560ff169060200190929190803590602001909291908035906020019092919050505061153f565b604051808381526020018281526020019250505060405180910390f35b34801561044557600080fd5b506104fe600480360361014081101561045d57600080fd5b81019080803573ffffffffffffffffffffffffffffffffffffffff169060200190929190803590602001909291908035906020019092919080359060200190929190803573ffffffffffffffffffffffffffffffffffffffff16906020019092919080359060200190929190803515159060200190929190803560ff16906020019092919080359060200190929190803590602001909291905050506116c4565b604051808381526020018281526020019250505060405180910390f35b34801561052757600080fd5b506105dd600480360360a081101561053e57600080fd5b8101908080359060200190929190803590602001909291908035906020019064010000000081111561056f57600080fd5b82018360208201111561058157600080fd5b803590602001918460208302840111640100000000831117156105a357600080fd5b9091929391929390803573ffffffffffffffffffffffffffffffffffffffff16906020019092919080359060200190929190505050611867565b6040518080602001828103825283818151815260200191508051906020019060200280838360005b83811015610620578082015181840152602081019050610605565b505050509050019250505060405180910390f35b6106df6004803603608081101561064a57600080fd5b81019080803590602001909291908035906020019064010000000081111561067157600080fd5b82018360208201111561068357600080fd5b803590602001918460208302840111640100000000831117156106a557600080fd5b9091929391929390803573ffffffffffffffffffffffffffffffffffffffff16906020019092919080359060200190929190505050611ada565b005b3480156106ed57600080fd5b506107a3600480360360a081101561070457600080fd5b8101908080359060200190929190803590602001909291908035906020019064010000000081111561073557600080fd5b82018360208201111561074757600080fd5b8035906020019184602083028401116401000000008311171561076957600080fd5b9091929391929390803573ffffffffffffffffffffffffffffffffffffffff169060200190929190803590602001909291905050506120b4565b005b3480156107b157600080fd5b50610867600480360360a08110156107c857600080fd5b810190808035906020019092919080359060200190929190803590602001906401000000008111156107f957600080fd5b82018360208201111561080b57600080fd5b8035906020019184602083028401116401000000008311171561082d57600080fd5b9091929391929390803573ffffffffffffffffffffffffffffffffffffffff1690602001909291908035906020019092919050505061246b565b6040518080602001828103825283818151815260200191508051906020019060200280838360005b838110156108aa57808201518184015260208101905061088f565b505050509050019250505060405180910390f35b3480156108ca57600080fd5b5061098360048036036101408110156108e257600080fd5b81019080803573ffffffffffffffffffffffffffffffffffffffff169060200190929190803590602001909291908035906020019092919080359060200190929190803573ffffffffffffffffffffffffffffffffffffffff16906020019092919080359060200190929190803515159060200190929190803560ff1690602001909291908035906020019092919080359060200190929190505050612890565b6040518082815260200191505060405180910390f35b610a44600480360360808110156109af57600080fd5b8101908080359060200190929190803590602001906401000000008111156109d657600080fd5b8201836020820111156109e857600080fd5b80359060200191846020830284011164010000000083111715610a0a57600080fd5b9091929391929390803573ffffffffffffffffffffffffffffffffffffffff16906020019092919080359060200190929190505050612a2a565b6040518080602001828103825283818151815260200191508051906020019060200280838360005b83811015610a87578082015181840152602081019050610a6c565b505050509050019250505060405180910390f35b348015610aa757600080fd5b50610ae860048036036060811015610abe57600080fd5b81019080803590602001909291908035906020019092919080359060200190929190505050612f08565b6040518082815260200191505060405180910390f35b348015610b0a57600080fd5b50610bc0600480360360a0811015610b2157600080fd5b81019080803590602001909291908035906020019092919080359060200190640100000000811115610b5257600080fd5b820183602082011115610b6457600080fd5b80359060200191846020830284011164010000000083111715610b8657600080fd5b9091929391929390803573ffffffffffffffffffffffffffffffffffffffff16906020019092919080359060200190929190505050612f1e565b6040518080602001828103825283818151815260200191508051906020019060200280838360005b83811015610c03578082015181840152602081019050610be8565b505050509050019250505060405180910390f35b348015610c2357600080fd5b50610c2c61318e565b604051808273ffffffffffffffffffffffffffffffffffffffff1673ffffffffffffffffffffffffffffffffffffffff16815260200191505060405180910390f35b610d1960048036036080811015610c8457600080fd5b810190808035906020019092919080359060200190640100000000811115610cab57600080fd5b820183602082011115610cbd57600080fd5b80359060200191846020830284011164010000000083111715610cdf57600080fd5b9091929391929390803573ffffffffffffffffffffffffffffffffffffffff169060200190929190803590602001909291905050506131b2565b6040518080602001828103825283818151815260200191508051906020019060200280838360005b83811015610d5c578082015181840152602081019050610d41565b505050509050019250505060405180910390f35b348015610d7c57600080fd5b50610dbd60048036036060811015610d9357600080fd5b81019080803590602001909291908035906020019092919080359060200190929190505050613656565b6040518082815260200191505060405180910390f35b348015610ddf57600080fd5b50610e6a600480360360c0811015610df657600080fd5b81019080803573ffffffffffffffffffffffffffffffffffffffff169060200190929190803590602001909291908035906020019092919080359060200190929190803573ffffffffffffffffffffffffffffffffffffffff1690602001909291908035906020019092919050505061366c565b6040518082815260200191505060405180910390f35b348015610e8c57600080fd5b50610f37600480360360e0811015610ea357600080fd5b81019080803573ffffffffffffffffffffffffffffffffffffffff169060200190929190803573ffffffffffffffffffffffffffffffffffffffff169060200190929190803590602001909291908035906020019092919080359060200190929190803573ffffffffffffffffffffffffffffffffffffffff1690602001909291908035906020019092919050505061387c565b604051808381526020018281526020019250505060405180910390f35b348015610f6057600080fd5b50610f69613bfd565b604051808273ffffffffffffffffffffffffffffffffffffffff1673ffffffffffffffffffffffffffffffffffffffff16815260200191505060405180910390f35b348015610fb757600080fd5b5061107860048036036040811015610fce57600080fd5b810190808035906020019092919080359060200190640100000000811115610ff557600080fd5b82018360208201111561100757600080fd5b8035906020019184602083028401116401000000008311171561102957600080fd5b919080806020026020016040519081016040528093929190818152602001838360200280828437600081840152601f19601f820116905080830192505050505050509192919290505050613c21565b6040518080602001828103825283818151815260200191508051906020019060200280838360005b838110156110bb5780820151818401526020810190506110a0565b505050509050019250505060405180910390f35b3480156110db57600080fd5b50611191600480360360a08110156110f257600080fd5b8101908080359060200190929190803590602001909291908035906020019064010000000081111561112357600080fd5b82018360208201111561113557600080fd5b8035906020019184602083028401116401000000008311171561115757600080fd5b9091929391929390803573ffffffffffffffffffffffffffffffffffffffff16906020019092919080359060200190929190505050613c56565b005b34801561119f57600080fd5b50611255600480360360a08110156111b657600080fd5b810190808035906020019092919080359060200190929190803590602001906401000000008111156111e757600080fd5b8201836020820111156111f957600080fd5b8035906020019184602083028401116401000000008311171561121b57600080fd5b9091929391929390803573ffffffffffffffffffffffffffffffffffffffff1690602001909291908035906020019092919050505061408c565b6040518080602001828103825283818151815260200191508051906020019060200280838360005b8381101561129857808201518184015260208101905061127d565b505050509050019250505060405180910390f35b3480156112b857600080fd5b50611343600480360360c08110156112cf57600080fd5b81019080803573ffffffffffffffffffffffffffffffffffffffff169060200190929190803590602001909291908035906020019092919080359060200190929190803573ffffffffffffffffffffffffffffffffffffffff169060200190929190803590602001909291905050506144ae565b604051808381526020018281526020019250505060405180910390f35b34801561136c57600080fd5b50611422600480360361010081101561138457600080fd5b81019080803573ffffffffffffffffffffffffffffffffffffffff169060200190929190803573ffffffffffffffffffffffffffffffffffffffff16906020019092919080359060200190929190803590602001909291908035906020019092919080359060200190929190803573ffffffffffffffffffffffffffffffffffffffff1690602001909291908035906020019092919050505061460b565b60405180848152602001838152602001828152602001935050505060405180910390f35b6114d0600480360360c081101561145c57600080fd5b81019080803573ffffffffffffffffffffffffffffffffffffffff169060200190929190803590602001909291908035906020019092919080359060200190929190803573ffffffffffffffffffffffffffffffffffffffff169060200190929190803590602001909291905050506147b0565b60405180848152602001838152602001828152602001935050505060405180910390f35b6000611501848484614b05565b90509392505050565b60606115377f00000000000000000000000000000000000000000000000000000000000000008484614c35565b905092915050565b600080600061156f7f00000000000000000000000000000000000000000000000000000000000000008f8f614d98565b905060008761157e578c6115a0565b7fffffffffffffffffffffffffffffffffffffffffffffffffffffffffffffffff5b90508173ffffffffffffffffffffffffffffffffffffffff1663d505accf3330848d8c8c8c6040518863ffffffff1660e01b8152600401808873ffffffffffffffffffffffffffffffffffffffff1673ffffffffffffffffffffffffffffffffffffffff1681526020018773ffffffffffffffffffffffffffffffffffffffff1673ffffffffffffffffffffffffffffffffffffffff1681526020018681526020018581526020018460ff1660ff168152602001838152602001828152602001975050505050505050600060405180830381600087803b15801561168357600080fd5b505af1158015611697573d6000803e3d6000fd5b505050506116aa8f8f8f8f8f8f8f61387c565b809450819550505050509b509b9950505050505050505050565b60008060006117147f00000000000000000000000000000000000000000000000000000000000000008e7f0000000000000000000000000000000000000000000000000000000000000000614d98565b9050600087611723578c611745565b7fffffffffffffffffffffffffffffffffffffffffffffffffffffffffffffffff5b90508173ffffffffffffffffffffffffffffffffffffffff1663d505accf3330848d8c8c8c6040518863ffffffff1660e01b8152600401808873ffffffffffffffffffffffffffffffffffffffff1673ffffffffffffffffffffffffffffffffffffffff1681526020018773ffffffffffffffffffffffffffffffffffffffff1673ffffffffffffffffffffffffffffffffffffffff1681526020018681526020018581526020018460ff1660ff168152602001838152602001828152602001975050505050505050600060405180830381600087803b15801561182857600080fd5b505af115801561183c573d6000803e3d6000fd5b5050505061184e8e8e8e8e8e8e6144ae565b809450819550505050509a509a98505050505050505050565b606081428110156118e0576040517f08c379a000000000000000000000000000000000000000000000000000000000815260040180806020018281038252601b8152602001807f54657374636f696e53776170526f757465723a2045585049524544000000000081525060200191505060405180910390fd5b61194c7f000000000000000000000000000000000000000000000000000000000000000089888880806020026020016040519081016040528093929190818152602001838360200280828437600081840152601f19601f82011690508083019250505050505050614ef3565b9150868260018451038151811061195f57fe5b602002602001015110156119be576040517f08c379a000000000000000000000000000000000000000000000000000000000815260040180806020018281038252602e815260200180616833602e913960400191505060405180910390fd5b611a83868660008181106119ce57fe5b9050602002013573ffffffffffffffffffffffffffffffffffffffff1633611a697f00000000000000000000000000000000000000000000000000000000000000008a8a6000818110611a1d57fe5b9050602002013573ffffffffffffffffffffffffffffffffffffffff168b8b6001818110611a4757fe5b9050602002013573ffffffffffffffffffffffffffffffffffffffff16614d98565b85600081518110611a7657fe5b602002602001015161504e565b611acf82878780806020026020016040519081016040528093929190818152602001838360200280828437600081840152601f19601f820116905080830192505050505050508661525f565b509695505050505050565b8042811015611b51576040517f08c379a000000000000000000000000000000000000000000000000000000000815260040180806020018281038252601b8152602001807f54657374636f696e53776170526f757465723a2045585049524544000000000081525060200191505060405180910390fd5b7f000000000000000000000000000000000000000000000000000000000000000073ffffffffffffffffffffffffffffffffffffffff1685856000818110611b9557fe5b9050602002013573ffffffffffffffffffffffffffffffffffffffff1673ffffffffffffffffffffffffffffffffffffffff1614611c3b576040517f08c379a00000000000000000000000000000000000000000000000000000000081526004018080602001828103825260208152602001807f54657374636f696e53776170526f757465723a20494e56414c49445f5041544881525060200191505060405180910390fd5b60003490507f000000000000000000000000000000000000000000000000000000000000000073ffffffffffffffffffffffffffffffffffffffff1663d0e30db0826040518263ffffffff1660e01b81526004016000604051808303818588803b158015611ca857600080fd5b505af1158015611cbc573d6000803e3d6000fd5b50505050507f000000000000000000000000000000000000000000000000000000000000000073ffffffffffffffffffffffffffffffffffffffff1663a9059cbb611d7a7f000000000000000000000000000000000000000000000000000000000000000089896000818110611d2e57fe5b9050602002013573ffffffffffffffffffffffffffffffffffffffff168a8a6001818110611d5857fe5b9050602002013573ffffffffffffffffffffffffffffffffffffffff16614d98565b836040518363ffffffff1660e01b8152600401808373ffffffffffffffffffffffffffffffffffffffff1673ffffffffffffffffffffffffffffffffffffffff16815260200182815260200192505050602060405180830381600087803b158015611de457600080fd5b505af1158015611df8573d6000803e3d6000fd5b505050506040513d6020811015611e0e57600080fd5b8101908080519060200190929190505050611e2557fe5b6000868660018989905003818110611e3957fe5b9050602002013573ffffffffffffffffffffffffffffffffffffffff1673ffffffffffffffffffffffffffffffffffffffff166370a08231866040518263ffffffff1660e01b8152600401808273ffffffffffffffffffffffffffffffffffffffff1673ffffffffffffffffffffffffffffffffffffffff16815260200191505060206040518083038186803b158015611ed257600080fd5b505afa158015611ee6573d6000803e3d6000fd5b505050506040513d6020811015611efc57600080fd5b81019080805190602001909291905050509050611f5a878780806020026020016040519081016040528093929190818152602001838360200280828437600081840152601f19601f820116905080830192505050505050508661550a565b8761205382898960018c8c905003818110611f7157fe5b9050602002013573ffffffffffffffffffffffffffffffffffffffff1673ffffffffffffffffffffffffffffffffffffffff166370a08231896040518263ffffffff1660e01b8152600401808273ffffffffffffffffffffffffffffffffffffffff1673ffffffffffffffffffffffffffffffffffffffff16815260200191505060206040518083038186803b15801561200a57600080fd5b505afa15801561201e573d6000803e3d6000fd5b505050506040513d602081101561203457600080fd5b810190808051906020019092919050505061598190919063ffffffff16565b10156120aa576040517f08c379a000000000000000000000000000000000000000000000000000000000815260040180806020018281038252602e815260200180616833602e913960400191505060405180910390fd5b5050505050505050565b804281101561212b576040517f08c379a000000000000000000000000000000000000000000000000000000000815260040180806020018281038252601b8152602001807f54657374636f696e53776170526f757465723a2045585049524544000000000081525060200191505060405180910390fd5b6121dc8585600081811061213b57fe5b9050602002013573ffffffffffffffffffffffffffffffffffffffff16336121d67f00000000000000000000000000000000000000000000000000000000000000008989600081811061218a57fe5b9050602002013573ffffffffffffffffffffffffffffffffffffffff168a8a60018181106121b457fe5b9050602002013573ffffffffffffffffffffffffffffffffffffffff16614d98565b8a61504e565b60008585600188889050038181106121f057fe5b9050602002013573ffffffffffffffffffffffffffffffffffffffff1673ffffffffffffffffffffffffffffffffffffffff166370a08231856040518263ffffffff1660e01b8152600401808273ffffffffffffffffffffffffffffffffffffffff1673ffffffffffffffffffffffffffffffffffffffff16815260200191505060206040518083038186803b15801561228957600080fd5b505afa15801561229d573d6000803e3d6000fd5b505050506040513d60208110156122b357600080fd5b81019080805190602001909291905050509050612311868680806020026020016040519081016040528093929190818152602001838360200280828437600081840152601f19601f820116905080830192505050505050508561550a565b8661240a82888860018b8b90500381811061232857fe5b9050602002013573ffffffffffffffffffffffffffffffffffffffff1673ffffffffffffffffffffffffffffffffffffffff166370a08231886040518263ffffffff1660e01b8152600401808273ffffffffffffffffffffffffffffffffffffffff1673ffffffffffffffffffffffffffffffffffffffff16815260200191505060206040518083038186803b1580156123c157600080fd5b505afa1580156123d5573d6000803e3d6000fd5b505050506040513d60208110156123eb57600080fd5b810190808051906020019092919050505061598190919063ffffffff16565b1015612461576040517f08c379a000000000000000000000000000000000000000000000000000000000815260040180806020018281038252602e815260200180616833602e913960400191505060405180910390fd5b5050505050505050565b606081428110156124e4576040517f08c379a000000000000000000000000000000000000000000000000000000000815260040180806020018281038252601b8152602001807f54657374636f696e53776170526f757465723a2045585049524544000000000081525060200191505060405180910390fd5b7f000000000000000000000000000000000000000000000000000000000000000073ffffffffffffffffffffffffffffffffffffffff1686866001898990500381811061252d57fe5b9050602002013573ffffffffffffffffffffffffffffffffffffffff1673ffffffffffffffffffffffffffffffffffffffff16146125d3576040517f08c379a00000000000000000000000000000000000000000000000000000000081526004018080602001828103825260208152602001807f54657374636f696e53776170526f757465723a20494e56414c49445f5041544881525060200191505060405180910390fd5b61263f7f000000000000000000000000000000000000000000000000000000000000000089888880806020026020016040519081016040528093929190818152602001838360200280828437600081840152601f19601f82011690508083019250505050505050614ef3565b9150868260018451038151811061265257fe5b602002602001015110156126b1576040517f08c379a000000000000000000000000000000000000000000000000000000000815260040180806020018281038252602e815260200180616833602e913960400191505060405180910390fd5b612776868660008181106126c157fe5b9050602002013573ffffffffffffffffffffffffffffffffffffffff163361275c7f00000000000000000000000000000000000000000000000000000000000000008a8a600081811061271057fe5b9050602002013573ffffffffffffffffffffffffffffffffffffffff168b8b600181811061273a57fe5b9050602002013573ffffffffffffffffffffffffffffffffffffffff16614d98565b8560008151811061276957fe5b602002602001015161504e565b6127c282878780806020026020016040519081016040528093929190818152602001838360200280828437600081840152601f19601f820116905080830192505050505050503061525f565b7f000000000000000000000000000000000000000000000000000000000000000073ffffffffffffffffffffffffffffffffffffffff16632e1a7d4d8360018551038151811061280e57fe5b60200260200101516040518263ffffffff1660e01b815260040180828152602001915050600060405180830381600087803b15801561284c57600080fd5b505af1158015612860573d6000803e3d6000fd5b50505050612885848360018551038151811061287857fe5b60200260200101516159cb565b509695505050505050565b6000806128de7f00000000000000000000000000000000000000000000000000000000000000008d7f0000000000000000000000000000000000000000000000000000000000000000614d98565b90506000866128ed578b61290f565b7fffffffffffffffffffffffffffffffffffffffffffffffffffffffffffffffff5b90508173ffffffffffffffffffffffffffffffffffffffff1663d505accf3330848c8b8b8b6040518863ffffffff1660e01b8152600401808873ffffffffffffffffffffffffffffffffffffffff1673ffffffffffffffffffffffffffffffffffffffff1681526020018773ffffffffffffffffffffffffffffffffffffffff1673ffffffffffffffffffffffffffffffffffffffff1681526020018681526020018581526020018460ff1660ff168152602001838152602001828152602001975050505050505050600060405180830381600087803b1580156129f257600080fd5b505af1158015612a06573d6000803e3d6000fd5b50505050612a188d8d8d8d8d8d61366c565b925050509a9950505050505050505050565b60608142811015612aa3576040517f08c379a000000000000000000000000000000000000000000000000000000000815260040180806020018281038252601b8152602001807f54657374636f696e53776170526f757465723a2045585049524544000000000081525060200191505060405180910390fd5b7f000000000000000000000000000000000000000000000000000000000000000073ffffffffffffffffffffffffffffffffffffffff1686866000818110612ae757fe5b9050602002013573ffffffffffffffffffffffffffffffffffffffff1673ffffffffffffffffffffffffffffffffffffffff1614612b8d576040517f08c379a00000000000000000000000000000000000000000000000000000000081526004018080602001828103825260208152602001807f54657374636f696e53776170526f757465723a20494e56414c49445f5041544881525060200191505060405180910390fd5b612bf97f000000000000000000000000000000000000000000000000000000000000000088888880806020026020016040519081016040528093929190818152602001838360200280828437600081840152601f19601f82011690508083019250505050505050614c35565b91503482600081518110612c0957fe5b60200260200101511115612c68576040517f08c379a000000000000000000000000000000000000000000000000000000000815260040180806020018281038252602a8152602001806168ac602a913960400191505060405180910390fd5b7f000000000000000000000000000000000000000000000000000000000000000073ffffffffffffffffffffffffffffffffffffffff1663d0e30db083600081518110612cb157fe5b60200260200101516040518263ffffffff1660e01b81526004016000604051808303818588803b158015612ce457600080fd5b505af1158015612cf8573d6000803e3d6000fd5b50505050507f000000000000000000000000000000000000000000000000000000000000000073ffffffffffffffffffffffffffffffffffffffff1663a9059cbb612db67f000000000000000000000000000000000000000000000000000000000000000089896000818110612d6a57fe5b9050602002013573ffffffffffffffffffffffffffffffffffffffff168a8a6001818110612d9457fe5b9050602002013573ffffffffffffffffffffffffffffffffffffffff16614d98565b84600081518110612dc357fe5b60200260200101516040518363ffffffff1660e01b8152600401808373ffffffffffffffffffffffffffffffffffffffff1673ffffffffffffffffffffffffffffffffffffffff16815260200182815260200192505050602060405180830381600087803b158015612e3457600080fd5b505af1158015612e48573d6000803e3d6000fd5b505050506040513d6020811015612e5e57600080fd5b8101908080519060200190929190505050612e7557fe5b612ec182878780806020026020016040519081016040528093929190818152602001838360200280828437600081840152601f19601f820116905080830192505050505050508661525f565b81600081518110612ece57fe5b6020026020010151341115612efe57612efd3383600081518110612eee57fe5b602002602001015134036159cb565b5b5095945050505050565b6000612f15848484615b2a565b90509392505050565b60608142811015612f97576040517f08c379a000000000000000000000000000000000000000000000000000000000815260040180806020018281038252601b8152602001807f54657374636f696e53776170526f757465723a2045585049524544000000000081525060200191505060405180910390fd5b6130037f000000000000000000000000000000000000000000000000000000000000000089888880806020026020016040519081016040528093929190818152602001838360200280828437600081840152601f19601f82011690508083019250505050505050614c35565b9150868260008151811061301357fe5b60200260200101511115613072576040517f08c379a000000000000000000000000000000000000000000000000000000000815260040180806020018281038252602a8152602001806168ac602a913960400191505060405180910390fd5b6131378686600081811061308257fe5b9050602002013573ffffffffffffffffffffffffffffffffffffffff163361311d7f00000000000000000000000000000000000000000000000000000000000000008a8a60008181106130d157fe5b9050602002013573ffffffffffffffffffffffffffffffffffffffff168b8b60018181106130fb57fe5b9050602002013573ffffffffffffffffffffffffffffffffffffffff16614d98565b8560008151811061312a57fe5b602002602001015161504e565b61318382878780806020026020016040519081016040528093929190818152602001838360200280828437600081840152601f19601f820116905080830192505050505050508661525f565b509695505050505050565b7f000000000000000000000000000000000000000000000000000000000000000081565b6060814281101561322b576040517f08c379a000000000000000000000000000000000000000000000000000000000815260040180806020018281038252601b8152602001807f54657374636f696e53776170526f757465723a2045585049524544000000000081525060200191505060405180910390fd5b7f000000000000000000000000000000000000000000000000000000000000000073ffffffffffffffffffffffffffffffffffffffff168686600081811061326f57fe5b9050602002013573ffffffffffffffffffffffffffffffffffffffff1673ffffffffffffffffffffffffffffffffffffffff1614613315576040517f08c379a00000000000000000000000000000000000000000000000000000000081526004018080602001828103825260208152602001807f54657374636f696e53776170526f757465723a20494e56414c49445f5041544881525060200191505060405180910390fd5b6133817f000000000000000000000000000000000000000000000000000000000000000034888880806020026020016040519081016040528093929190818152602001838360200280828437600081840152601f19601f82011690508083019250505050505050614ef3565b9150868260018451038151811061339457fe5b602002602001015110156133f3576040517f08c379a000000000000000000000000000000000000000000000000000000000815260040180806020018281038252602e815260200180616833602e913960400191505060405180910390fd5b7f000000000000000000000000000000000000000000000000000000000000000073ffffffffffffffffffffffffffffffffffffffff1663d0e30db08360008151811061343c57fe5b60200260200101516040518263ffffffff1660e01b81526004016000604051808303818588803b15801561346f57600080fd5b505af1158015613483573d6000803e3d6000fd5b50505050507f000000000000000000000000000000000000000000000000000000000000000073ffffffffffffffffffffffffffffffffffffffff1663a9059cbb6135417f0000000000000000000000000000000000000000000000000000000000000000898960008181106134f557fe5b9050602002013573ffffffffffffffffffffffffffffffffffffffff168a8a600181811061351f57fe5b9050602002013573ffffffffffffffffffffffffffffffffffffffff16614d98565b8460008151811061354e57fe5b60200260200101516040518363ffffffff1660e01b8152600401808373ffffffffffffffffffffffffffffffffffffffff1673ffffffffffffffffffffffffffffffffffffffff16815260200182815260200192505050602060405180830381600087803b1580156135bf57600080fd5b505af11580156135d3573d6000803e3d6000fd5b505050506040513d60208110156135e957600080fd5b810190808051906020019092919050505061360057fe5b61364c82878780806020026020016040519081016040528093929190818152602001838360200280828437600081840152601f19601f820116905080830192505050505050508661525f565b5095945050505050565b6000613663848484615c67565b90509392505050565b600081428110156136e5576040517f08c379a000000000000000000000000000000000000000000000000000000000815260040180806020018281038252601b8152602001807f54657374636f696e53776170526f757465723a2045585049524544000000000081525060200191505060405180910390fd5b613714887f0000000000000000000000000000000000000000000000000000000000000000898989308961387c565b9050809250506137dc88858a73ffffffffffffffffffffffffffffffffffffffff166370a08231306040518263ffffffff1660e01b8152600401808273ffffffffffffffffffffffffffffffffffffffff1673ffffffffffffffffffffffffffffffffffffffff16815260200191505060206040518083038186803b15801561379c57600080fd5b505afa1580156137b0573d6000803e3d6000fd5b505050506040513d60208110156137c657600080fd5b8101908080519060200190929190505050615d4b565b7f000000000000000000000000000000000000000000000000000000000000000073ffffffffffffffffffffffffffffffffffffffff16632e1a7d4d836040518263ffffffff1660e01b815260040180828152602001915050600060405180830381600087803b15801561384f57600080fd5b505af1158015613863573d6000803e3d6000fd5b5050505061387184836159cb565b509695505050505050565b60008082428110156138f6576040517f08c379a000000000000000000000000000000000000000000000000000000000815260040180806020018281038252601b8152602001807f54657374636f696e53776170526f757465723a2045585049524544000000000081525060200191505060405180910390fd5b60006139237f00000000000000000000000000000000000000000000000000000000000000008c8c614d98565b90508073ffffffffffffffffffffffffffffffffffffffff166323b872dd33838c6040518463ffffffff1660e01b8152600401808473ffffffffffffffffffffffffffffffffffffffff1673ffffffffffffffffffffffffffffffffffffffff1681526020018373ffffffffffffffffffffffffffffffffffffffff1673ffffffffffffffffffffffffffffffffffffffff1681526020018281526020019350505050602060405180830381600087803b1580156139e057600080fd5b505af11580156139f4573d6000803e3d6000fd5b505050506040513d6020811015613a0a57600080fd5b8101908080519060200190929190505050506000808273ffffffffffffffffffffffffffffffffffffffff166389afcb44896040518263ffffffff1660e01b8152600401808273ffffffffffffffffffffffffffffffffffffffff1673ffffffffffffffffffffffffffffffffffffffff1681526020019150506040805180830381600087803b158015613a9d57600080fd5b505af1158015613ab1573d6000803e3d6000fd5b505050506040513d6040811015613ac757600080fd5b810190808051906020019092919080519060200190929190505050915091506000613af28e8e615f44565b5090508073ffffffffffffffffffffffffffffffffffffffff168e73ffffffffffffffffffffffffffffffffffffffff1614613b2f578183613b32565b82825b80975081985050508a871015613b93576040517f08c379a00000000000000000000000000000000000000000000000000000000081526004018080602001828103825260298152602001806169016029913960400191505060405180910390fd5b89861015613bec576040517f08c379a00000000000000000000000000000000000000000000000000000000081526004018080602001828103825260298152602001806167ba6029913960400191505060405180910390fd5b505050505097509795505050505050565b7f000000000000000000000000000000000000000000000000000000000000000081565b6060613c4e7f00000000000000000000000000000000000000000000000000000000000000008484614ef3565b905092915050565b8042811015613ccd576040517f08c379a000000000000000000000000000000000000000000000000000000000815260040180806020018281038252601b8152602001807f54657374636f696e53776170526f757465723a2045585049524544000000000081525060200191505060405180910390fd5b7f000000000000000000000000000000000000000000000000000000000000000073ffffffffffffffffffffffffffffffffffffffff16858560018888905003818110613d1657fe5b9050602002013573ffffffffffffffffffffffffffffffffffffffff1673ffffffffffffffffffffffffffffffffffffffff1614613dbc576040517f08c379a00000000000000000000000000000000000000000000000000000000081526004018080602001828103825260208152602001807f54657374636f696e53776170526f757465723a20494e56414c49445f5041544881525060200191505060405180910390fd5b613e6d85856000818110613dcc57fe5b9050602002013573ffffffffffffffffffffffffffffffffffffffff1633613e677f000000000000000000000000000000000000000000000000000000000000000089896000818110613e1b57fe5b9050602002013573ffffffffffffffffffffffffffffffffffffffff168a8a6001818110613e4557fe5b9050602002013573ffffffffffffffffffffffffffffffffffffffff16614d98565b8a61504e565b613eb8858580806020026020016040519081016040528093929190818152602001838360200280828437600081840152601f19601f820116905080830192505050505050503061550a565b60007f000000000000000000000000000000000000000000000000000000000000000073ffffffffffffffffffffffffffffffffffffffff166370a08231306040518263ffffffff1660e01b8152600401808273ffffffffffffffffffffffffffffffffffffffff1673ffffffffffffffffffffffffffffffffffffffff16815260200191505060206040518083038186803b158015613f5757600080fd5b505afa158015613f6b573d6000803e3d6000fd5b505050506040513d6020811015613f8157600080fd5b8101908080519060200190929190505050905086811015613fed576040517f08c379a000000000000000000000000000000000000000000000000000000000815260040180806020018281038252602e815260200180616833602e913960400191505060405180910390fd5b7f000000000000000000000000000000000000000000000000000000000000000073ffffffffffffffffffffffffffffffffffffffff16632e1a7d4d826040518263ffffffff1660e01b815260040180828152602001915050600060405180830381600087803b15801561406057600080fd5b505af1158015614074573d6000803e3d6000fd5b5050505061408284826159cb565b5050505050505050565b60608142811015614105576040517f08c379a000000000000000000000000000000000000000000000000000000000815260040180806020018281038252601b8152602001807f54657374636f696e53776170526f757465723a2045585049524544000000000081525060200191505060405180910390fd5b7f000000000000000000000000000000000000000000000000000000000000000073ffffffffffffffffffffffffffffffffffffffff1686866001898990500381811061414e57fe5b9050602002013573ffffffffffffffffffffffffffffffffffffffff1673ffffffffffffffffffffffffffffffffffffffff16146141f4576040517f08c379a00000000000000000000000000000000000000000000000000000000081526004018080602001828103825260208152602001807f54657374636f696e53776170526f757465723a20494e56414c49445f5041544881525060200191505060405180910390fd5b6142607f000000000000000000000000000000000000000000000000000000000000000089888880806020026020016040519081016040528093929190818152602001838360200280828437600081840152601f19601f82011690508083019250505050505050614c35565b9150868260008151811061427057fe5b602002602001015111156142cf576040517f08c379a000000000000000000000000000000000000000000000000000000000815260040180806020018281038252602a8152602001806168ac602a913960400191505060405180910390fd5b614394868660008181106142df57fe5b9050602002013573ffffffffffffffffffffffffffffffffffffffff163361437a7f00000000000000000000000000000000000000000000000000000000000000008a8a600081811061432e57fe5b9050602002013573ffffffffffffffffffffffffffffffffffffffff168b8b600181811061435857fe5b9050602002013573ffffffffffffffffffffffffffffffffffffffff16614d98565b8560008151811061438757fe5b602002602001015161504e565b6143e082878780806020026020016040519081016040528093929190818152602001838360200280828437600081840152601f19601f820116905080830192505050505050503061525f565b7f000000000000000000000000000000000000000000000000000000000000000073ffffffffffffffffffffffffffffffffffffffff16632e1a7d4d8360018551038151811061442c57fe5b60200260200101516040518263ffffffff1660e01b815260040180828152602001915050600060405180830381600087803b15801561446a57600080fd5b505af115801561447e573d6000803e3d6000fd5b505050506144a3848360018551038151811061449657fe5b60200260200101516159cb565b509695505050505050565b6000808242811015614528576040517f08c379a000000000000000000000000000000000000000000000000000000000815260040180806020018281038252601b8152602001807f54657374636f696e53776170526f757465723a2045585049524544000000000081525060200191505060405180910390fd5b614557897f00000000000000000000000000000000000000000000000000000000000000008a8a8a308a61387c565b809350819450505061456a898685615d4b565b7f000000000000000000000000000000000000000000000000000000000000000073ffffffffffffffffffffffffffffffffffffffff16632e1a7d4d836040518263ffffffff1660e01b815260040180828152602001915050600060405180830381600087803b1580156145dd57600080fd5b505af11580156145f1573d6000803e3d6000fd5b505050506145ff85836159cb565b50965096945050505050565b60008060008342811015614687576040517f08c379a000000000000000000000000000000000000000000000000000000000815260040180806020018281038252601b8152602001807f54657374636f696e53776170526f757465723a2045585049524544000000000081525060200191505060405180910390fd5b6146958c8c8c8c8c8c61609e565b809450819550505060006146ca7f00000000000000000000000000000000000000000000000000000000000000008e8e614d98565b90506146d88d33838861504e565b6146e48c33838761504e565b8073ffffffffffffffffffffffffffffffffffffffff16636a627842886040518263ffffffff1660e01b8152600401808273ffffffffffffffffffffffffffffffffffffffff1673ffffffffffffffffffffffffffffffffffffffff168152602001915050602060405180830381600087803b15801561476357600080fd5b505af1158015614777573d6000803e3d6000fd5b505050506040513d602081101561478d57600080fd5b810190808051906020019092919050505092505050985098509895505050505050565b6000806000834281101561482c576040517f08c379a000000000000000000000000000000000000000000000000000000000815260040180806020018281038252601b8152602001807f54657374636f696e53776170526f757465723a2045585049524544000000000081525060200191505060405180910390fd5b61485a8a7f00000000000000000000000000000000000000000000000000000000000000008b348c8c61609e565b809450819550505060006148af7f00000000000000000000000000000000000000000000000000000000000000008c7f0000000000000000000000000000000000000000000000000000000000000000614d98565b90506148bd8b33838861504e565b7f000000000000000000000000000000000000000000000000000000000000000073ffffffffffffffffffffffffffffffffffffffff1663d0e30db0856040518263ffffffff1660e01b81526004016000604051808303818588803b15801561492557600080fd5b505af1158015614939573d6000803e3d6000fd5b50505050507f000000000000000000000000000000000000000000000000000000000000000073ffffffffffffffffffffffffffffffffffffffff1663a9059cbb82866040518363ffffffff1660e01b8152600401808373ffffffffffffffffffffffffffffffffffffffff1673ffffffffffffffffffffffffffffffffffffffff16815260200182815260200192505050602060405180830381600087803b1580156149e557600080fd5b505af11580156149f9573d6000803e3d6000fd5b505050506040513d6020811015614a0f57600080fd5b8101908080519060200190929190505050614a2657fe5b8073ffffffffffffffffffffffffffffffffffffffff16636a627842886040518263ffffffff1660e01b8152600401808273ffffffffffffffffffffffffffffffffffffffff1673ffffffffffffffffffffffffffffffffffffffff168152602001915050602060405180830381600087803b158015614aa557600080fd5b505af1158015614ab9573d6000803e3d6000fd5b505050506040513d6020811015614acf57600080fd5b8101908080519060200190929190505050925083341115614af757614af6338534036159cb565b5b505096509650969350505050565b6000808411614b5f576040517f08c379a000000000000000000000000000000000000000000000000000000000815260040180806020018281038252602e81526020018061676b602e913960400191505060405180910390fd5b600083118015614b6f5750600082115b614bc4576040517f08c379a000000000000000000000000000000000000000000000000000000000815260040180806020018281038252602b8152602001806168d6602b913960400191505060405180910390fd5b6000614bdb6103e58661645290919063ffffffff16565b90506000614bf2848361645290919063ffffffff16565b90506000614c1d83614c0f6103e88961645290919063ffffffff16565b6164d890919063ffffffff16565b9050808281614c2857fe5b0493505050509392505050565b6060600282511015614c92576040517f08c379a00000000000000000000000000000000000000000000000000000000081526004018080602001828103825260218152602001806167996021913960400191505060405180910390fd5b815167ffffffffffffffff81118015614caa57600080fd5b50604051908082528060200260200182016040528015614cd95781602001602082028036833780820191505090505b5090508281600183510381518110614ced57fe5b6020026020010181815250506000600183510390505b6000811115614d9057600080614d4387866001860381518110614d2257fe5b6020026020010151878681518110614d3657fe5b6020026020010151616560565b91509150614d65848481518110614d5657fe5b60200260200101518383615b2a565b846001850381518110614d7457fe5b6020026020010181815250505050808060019003915050614d03565b509392505050565b6000806000614da78585615f44565b91509150858282604051602001808373ffffffffffffffffffffffffffffffffffffffff1673ffffffffffffffffffffffffffffffffffffffff1660601b81526014018273ffffffffffffffffffffffffffffffffffffffff1673ffffffffffffffffffffffffffffffffffffffff1660601b8152601401925050506040516020818303038152906040528051906020012060405160200180807fff000000000000000000000000000000000000000000000000000000000000008152506001018373ffffffffffffffffffffffffffffffffffffffff1673ffffffffffffffffffffffffffffffffffffffff1660601b8152601401828152602001807fe2e87433120e32c4738a7d8f3271f3d872cbe16241d67537139158d90bac61d3815250602001925050506040516020818303038152906040528051906020012060001c925050509392505050565b6060600282511015614f50576040517f08c379a00000000000000000000000000000000000000000000000000000000081526004018080602001828103825260218152602001806167996021913960400191505060405180910390fd5b815167ffffffffffffffff81118015614f6857600080fd5b50604051908082528060200260200182016040528015614f975781602001602082028036833780820191505090505b5090508281600081518110614fa857fe5b60200260200101818152505060005b600183510381101561504657600080614ffa87868581518110614fd657fe5b6020026020010151876001870181518110614fed57fe5b6020026020010151616560565b9150915061501c84848151811061500d57fe5b60200260200101518383614b05565b84600185018151811061502b57fe5b60200260200101818152505050508080600101915050614fb7565b509392505050565b600060608573ffffffffffffffffffffffffffffffffffffffff166323b872dd868686604051602401808473ffffffffffffffffffffffffffffffffffffffff1673ffffffffffffffffffffffffffffffffffffffff1681526020018373ffffffffffffffffffffffffffffffffffffffff1673ffffffffffffffffffffffffffffffffffffffff16815260200182815260200193505050506040516020818303038152906040529060e01b6020820180517bffffffffffffffffffffffffffffffffffffffffffffffffffffffff83818316178352505050506040518082805190602001908083835b6020831061515b5780518252602082019150602081019050602083039250615138565b6001836020036101000a0380198251168184511680821785525050505050509050019150506000604051808303816000865af19150503d80600081146151bd576040519150601f19603f3d011682016040523d82523d6000602084013e6151c2565b606091505b5091509150818015615202575060008151148061520157508080602001905160208110156151ef57600080fd5b81019080805190602001909291905050505b5b615257576040517f08c379a00000000000000000000000000000000000000000000000000000000081526004018080602001828103825260248152602001806169526024913960400191505060405180910390fd5b505050505050565b60005b60018351038110156155045760008084838151811061527d57fe5b602002602001015185600185018151811061529457fe5b60200260200101519150915060006152ac8383615f44565b50905060008760018601815181106152c057fe5b602002602001015190506000808373ffffffffffffffffffffffffffffffffffffffff168673ffffffffffffffffffffffffffffffffffffffff16146153085782600061530c565b6000835b91509150600060028a510388106153235788615365565b6153647f0000000000000000000000000000000000000000000000000000000000000000878c60028c018151811061535757fe5b6020026020010151614d98565b5b90506153927f00000000000000000000000000000000000000000000000000000000000000008888614d98565b73ffffffffffffffffffffffffffffffffffffffff1663022c0d9f848484600067ffffffffffffffff811180156153c857600080fd5b506040519080825280601f01601f1916602001820160405280156153fb5781602001600182028036833780820191505090505b506040518563ffffffff1660e01b8152600401808581526020018481526020018373ffffffffffffffffffffffffffffffffffffffff1673ffffffffffffffffffffffffffffffffffffffff16815260200180602001828103825283818151815260200191508051906020019080838360005b8381101561548957808201518184015260208101905061546e565b50505050905090810190601f1680156154b65780820380516001836020036101000a031916815260200191505b5095505050505050600060405180830381600087803b1580156154d857600080fd5b505af11580156154ec573d6000803e3d6000fd5b50505050505050505050508080600101915050615262565b50505050565b60005b600183510381101561597c5760008084838151811061552857fe5b602002602001015185600185018151811061553f57fe5b60200260200101519150915060006155578383615f44565b50905060006155877f00000000000000000000000000000000000000000000000000000000000000008585614d98565b90506000806000808473ffffffffffffffffffffffffffffffffffffffff16630902f1ac6040518163ffffffff1660e01b815260040160606040518083038186803b1580156155d557600080fd5b505afa1580156155e9573d6000803e3d6000fd5b505050506040513d60608110156155ff57600080fd5b81019080805190602001909291908051906020019092919080519060200190929190505050506dffffffffffffffffffffffffffff1691506dffffffffffffffffffffffffffff1691506000808773ffffffffffffffffffffffffffffffffffffffff168a73ffffffffffffffffffffffffffffffffffffffff1614615686578284615689565b83835b91509150615757828b73ffffffffffffffffffffffffffffffffffffffff166370a082318a6040518263ffffffff1660e01b8152600401808273ffffffffffffffffffffffffffffffffffffffff1673ffffffffffffffffffffffffffffffffffffffff16815260200191505060206040518083038186803b15801561570e57600080fd5b505afa158015615722573d6000803e3d6000fd5b505050506040513d602081101561573857600080fd5b810190808051906020019092919050505061598190919063ffffffff16565b9550615764868383614b05565b9450505050506000808573ffffffffffffffffffffffffffffffffffffffff168873ffffffffffffffffffffffffffffffffffffffff16146157a8578260006157ac565b6000835b91509150600060028c51038a106157c3578a615805565b6158047f0000000000000000000000000000000000000000000000000000000000000000898e60028e01815181106157f757fe5b6020026020010151614d98565b5b90508573ffffffffffffffffffffffffffffffffffffffff1663022c0d9f848484600067ffffffffffffffff8111801561583e57600080fd5b506040519080825280601f01601f1916602001820160405280156158715781602001600182028036833780820191505090505b506040518563ffffffff1660e01b8152600401808581526020018481526020018373ffffffffffffffffffffffffffffffffffffffff1673ffffffffffffffffffffffffffffffffffffffff16815260200180602001828103825283818151815260200191508051906020019080838360005b838110156158ff5780820151818401526020810190506158e4565b50505050905090810190601f16801561592c5780820380516001836020036101000a031916815260200191505b5095505050505050600060405180830381600087803b15801561594e57600080fd5b505af1158015615962573d6000803e3d6000fd5b50505050505050505050505050808060010191505061550d565b505050565b60006159c383836040518060400160405280601e81526020017f536166654d6174683a207375627472616374696f6e206f766572666c6f770000815250616689565b905092915050565b60008273ffffffffffffffffffffffffffffffffffffffff1682600067ffffffffffffffff811180156159fd57600080fd5b506040519080825280601f01601f191660200182016040528015615a305781602001600182028036833780820191505090505b506040518082805190602001908083835b60208310615a645780518252602082019150602081019050602083039250615a41565b6001836020036101000a03801982511681845116808217855250505050505090500191505060006040518083038185875af1925050503d8060008114615ac6576040519150601f19603f3d011682016040523d82523d6000602084013e615acb565b606091505b5050905080615b25576040517f08c379a00000000000000000000000000000000000000000000000000000000081526004018080602001828103825260238152602001806168896023913960400191505060405180910390fd5b505050565b6000808411615b84576040517f08c379a000000000000000000000000000000000000000000000000000000000815260040180806020018281038252602f815260200180616804602f913960400191505060405180910390fd5b600083118015615b945750600082115b615be9576040517f08c379a000000000000000000000000000000000000000000000000000000000815260040180806020018281038252602b8152602001806168d6602b913960400191505060405180910390fd5b6000615c126103e8615c04878761645290919063ffffffff16565b61645290919063ffffffff16565b90506000615c3d6103e5615c2f888761598190919063ffffffff16565b61645290919063ffffffff16565b9050615c5c6001828481615c4d57fe5b046164d890919063ffffffff16565b925050509392505050565b6000808411615cc1576040517f08c379a000000000000000000000000000000000000000000000000000000000815260040180806020018281038252602881526020018061692a6028913960400191505060405180910390fd5b600083118015615cd15750600082115b615d26576040517f08c379a000000000000000000000000000000000000000000000000000000000815260040180806020018281038252602b8152602001806168d6602b913960400191505060405180910390fd5b82615d3a838661645290919063ffffffff16565b81615d4157fe5b0490509392505050565b600060608473ffffffffffffffffffffffffffffffffffffffff1663a9059cbb8585604051602401808373ffffffffffffffffffffffffffffffffffffffff1673ffffffffffffffffffffffffffffffffffffffff168152602001828152602001925050506040516020818303038152906040529060e01b6020820180517bffffffffffffffffffffffffffffffffffffffffffffffffffffffff83818316178352505050506040518082805190602001908083835b60208310615e245780518252602082019150602081019050602083039250615e01565b6001836020036101000a0380198251168184511680821785525050505050509050019150506000604051808303816000865af19150503d8060008114615e86576040519150601f19603f3d011682016040523d82523d6000602084013e615e8b565b606091505b5091509150818015615ecb5750600081511480615eca5750808060200190516020811015615eb857600080fd5b81019080805190602001909291905050505b5b615f3d576040517f08c379a000000000000000000000000000000000000000000000000000000000815260040180806020018281038252601f8152602001807f5472616e7366657248656c7065723a205452414e534645525f4641494c45440081525060200191505060405180910390fd5b5050505050565b6000808273ffffffffffffffffffffffffffffffffffffffff168473ffffffffffffffffffffffffffffffffffffffff161415615fcc576040517f08c379a00000000000000000000000000000000000000000000000000000000081526004018080602001828103825260288152602001806168616028913960400191505060405180910390fd5b8273ffffffffffffffffffffffffffffffffffffffff168473ffffffffffffffffffffffffffffffffffffffff1610616006578284616009565b83835b8092508193505050600073ffffffffffffffffffffffffffffffffffffffff168273ffffffffffffffffffffffffffffffffffffffff161415616097576040517f08c379a000000000000000000000000000000000000000000000000000000000815260040180806020018281038252602181526020018061674a6021913960400191505060405180910390fd5b9250929050565b600080600073ffffffffffffffffffffffffffffffffffffffff167f000000000000000000000000000000000000000000000000000000000000000073ffffffffffffffffffffffffffffffffffffffff1663e6a439058a8a6040518363ffffffff1660e01b8152600401808373ffffffffffffffffffffffffffffffffffffffff1673ffffffffffffffffffffffffffffffffffffffff1681526020018273ffffffffffffffffffffffffffffffffffffffff1673ffffffffffffffffffffffffffffffffffffffff1681526020019250505060206040518083038186803b15801561618a57600080fd5b505afa15801561619e573d6000803e3d6000fd5b505050506040513d60208110156161b457600080fd5b810190808051906020019092919050505073ffffffffffffffffffffffffffffffffffffffff1614156162f1577f000000000000000000000000000000000000000000000000000000000000000073ffffffffffffffffffffffffffffffffffffffff1663c9c6539689896040518363ffffffff1660e01b8152600401808373ffffffffffffffffffffffffffffffffffffffff1673ffffffffffffffffffffffffffffffffffffffff1681526020018273ffffffffffffffffffffffffffffffffffffffff1673ffffffffffffffffffffffffffffffffffffffff16815260200192505050602060405180830381600087803b1580156162b457600080fd5b505af11580156162c8573d6000803e3d6000fd5b505050506040513d60208110156162de57600080fd5b8101908080519060200190929190505050505b60008061631f7f00000000000000000000000000000000000000000000000000000000000000008b8b616560565b915091506000821480156163335750600081145b156163475787878094508195505050616445565b6000616354898484615c67565b90508781116163c557858110156163b6576040517f08c379a00000000000000000000000000000000000000000000000000000000081526004018080602001828103825260298152602001806167ba6029913960400191505060405180910390fd5b88818095508196505050616443565b60006163d2898486615c67565b9050898111156163de57fe5b87811015616437576040517f08c379a00000000000000000000000000000000000000000000000000000000081526004018080602001828103825260298152602001806169016029913960400191505060405180910390fd5b80898096508197505050505b505b5050965096945050505050565b60008083141561646557600090506164d2565b600082840290508284828161647657fe5b04146164cd576040517f08c379a00000000000000000000000000000000000000000000000000000000081526004018080602001828103825260218152602001806167e36021913960400191505060405180910390fd5b809150505b92915050565b600080828401905083811015616556576040517f08c379a000000000000000000000000000000000000000000000000000000000815260040180806020018281038252601b8152602001807f536166654d6174683a206164646974696f6e206f766572666c6f77000000000081525060200191505060405180910390fd5b8091505092915050565b600080600061656f8585615f44565b509050600080616580888888614d98565b73ffffffffffffffffffffffffffffffffffffffff16630902f1ac6040518163ffffffff1660e01b815260040160606040518083038186803b1580156165c557600080fd5b505afa1580156165d9573d6000803e3d6000fd5b505050506040513d60608110156165ef57600080fd5b81019080805190602001909291908051906020019092919080519060200190929190505050506dffffffffffffffffffffffffffff1691506dffffffffffffffffffffffffffff1691508273ffffffffffffffffffffffffffffffffffffffff168773ffffffffffffffffffffffffffffffffffffffff1614616673578082616676565b81815b8095508196505050505050935093915050565b6000838311158290616736576040517f08c379a00000000000000000000000000000000000000000000000000000000081526004018080602001828103825283818151815260200191508051906020019080838360005b838110156166fb5780820151818401526020810190506166e0565b50505050905090810190601f1680156167285780820380516001836020036101000a031916815260200191505b509250505060405180910390fd5b506000838503905080915050939250505056fe54657374636f696e537761704c6962726172793a205a45524f5f4144445245535354657374636f696e537761704c6962726172793a20494e53554646494349454e545f494e5055545f414d4f554e5454657374636f696e537761704c6962726172793a20494e56414c49445f5041544854657374636f696e53776170526f757465723a20494e53554646494349454e545f425f414d4f554e54536166654d6174683a206d756c7469706c69636174696f6e206f766572666c6f7754657374636f696e537761704c6962726172793a20494e53554646494349454e545f4f55545055545f414d4f554e5454657374636f696e53776170526f757465723a20494e53554646494349454e545f4f55545055545f414d4f554e5454657374636f696e537761704c6962726172793a204944454e544943414c5f4144445245535345535472616e7366657248656c7065723a20424e425f5452414e534645525f4641494c454454657374636f696e53776170526f757465723a204558434553534956455f494e5055545f414d4f554e5454657374636f696e537761704c6962726172793a20494e53554646494349454e545f4c495155494449545954657374636f696e53776170526f757465723a20494e53554646494349454e545f415f414d4f554e5454657374636f696e537761704c6962726172793a20494e53554646494349454e545f414d4f554e545472616e7366657248656c7065723a205452414e534645525f46524f4d5f4641494c4544a26469706673582212201c14c122b3edbc3f25b789b40f8a659c70feab692f7e68d667203a8c4a9688f764736f6c63430006060033",
  "immutableReferences": {
    "7296": [
      {
        "length": 32,
        "start": 5393
      },
      {
        "length": 32,
        "start": 5449
      },
      {
        "length": 32,
        "start": 5838
      },
      {
        "length": 32,
        "start": 6373
      },
      {
        "length": 32,
        "start": 6641
      },
      {
        "length": 32,
        "start": 7426
      },
      {
        "length": 32,
        "start": 8542
      },
      {
        "length": 32,
        "start": 9688
      },
      {
        "length": 32,
        "start": 9956
      },
      {
        "length": 32,
        "start": 10392
      },
      {
        "length": 32,
        "start": 11154
      },
      {
        "length": 32,
        "start": 11582
      },
      {
        "length": 32,
        "start": 12188
      },
      {
        "length": 32,
        "start": 12453
      },
      {
        "length": 32,
        "start": 13082
      },
      {
        "length": 32,
        "start": 13513
      },
      {
        "length": 32,
        "start": 14589
      },
      {
        "length": 32,
        "start": 15359
      },
      {
        "length": 32,
        "start": 15400
      },
      {
        "length": 32,
        "start": 15855
      },
      {
        "length": 32,
        "start": 16889
      },
      {
        "length": 32,
        "start": 17154
      },
      {
        "length": 32,
        "start": 18084
      },
      {
        "length": 32,
        "start": 18537
      },
      {
        "length": 32,
        "start": 21288
      },
      {
        "length": 32,
        "start": 21356
      },
      {
        "length": 32,
        "start": 21857
      },
      {
        "length": 32,
        "start": 22472
      },
      {
        "length": 32,
        "start": 24763
      },
      {
        "length": 32,
        "start": 25059
      },
      {
        "length": 32,
        "start": 25337
      }
    ],
    "7299": [
      {
        "length": 32,
        "start": 342
      },
      {
        "length": 32,
        "start": 5872
      },
      {
        "length": 32,
        "start": 6995
      },
      {
        "length": 32,
        "start": 7234
      },
      {
        "length": 32,
        "start": 7363
      },
      {
        "length": 32,
        "start": 9446
      },
      {
        "length": 32,
        "start": 10180
      },
      {
        "length": 32,
        "start": 10426
      },
      {
        "length": 32,
        "start": 10917
      },
      {
        "length": 32,
        "start": 11370
      },
      {
        "length": 32,
        "start": 11519
      },
      {
        "length": 32,
        "start": 12688
      },
      {
        "length": 32,
        "start": 12845
      },
      {
        "length": 32,
        "start": 13301
      },
      {
        "length": 32,
        "start": 13450
      },
      {
        "length": 32,
        "start": 14059
      },
      {
        "length": 32,
        "start": 14302
      },
      {
        "length": 32,
        "start": 15567
      },
      {
        "length": 32,
        "start": 16060
      },
      {
        "length": 32,
        "start": 16367
      },
      {
        "length": 32,
        "start": 16647
      },
      {
        "length": 32,
        "start": 17378
      },
      {
        "length": 32,
        "start": 17710
      },
      {
        "length": 32,
        "start": 17772
      },
      {
        "length": 32,
        "start": 18482
      },
      {
        "length": 32,
        "start": 18571
      },
      {
        "length": 32,
        "start": 18623
      },
      {
        "length": 32,
        "start": 18752
      }
    ]
  },
  "source": "pragma solidity =0.6.6;\r\n\r\nimport '../../Testcoin-swap-core/contracts/interfaces/ITestcoinFactory.sol';\r\nimport '../../Testcoin-swap-lib/contracts/utils/TransferHelper.sol';\r\n\r\nimport './interfaces/ITestcoinSwapRouter.sol';\r\nimport './libraries/TestcoinSwapLibrary.sol';\r\nimport '../../Testcoin-swap-lib/contracts/math/SafeMath.sol';\r\nimport '../../Testcoin-swap-lib/contracts/token/BEP20/IBEP20.sol';\r\nimport './interfaces/IWBNB.sol';\r\n\r\ncontract TestcoinSwapRouter is ITestcoinSwapRouter {\r\n    using SafeMath for uint;\r\n    address public immutable override factory;\r\n    address public immutable override WBNB;\r\n\r\n    modifier ensure(uint deadline) {\r\n        require(deadline >= block.timestamp, 'TestcoinSwapRouter: EXPIRED');\r\n        _;\r\n    }\r\n\r\n    constructor(address _factory, address _WBNB) public {\r\n        factory = _factory;\r\n        WBNB = _WBNB;\r\n    }\r\n\r\n    receive() external payable {\r\n        assert(msg.sender == WBNB); // only accept BNB via fallback from the WBNB contract\r\n    }\r\n\r\n    // **** ADD LIQUIDITY ****\r\n    function _addLiquidity(\r\n        address tokenA,\r\n        address tokenB,\r\n        uint amountADesired,\r\n        uint amountBDesired,\r\n        uint amountAMin,\r\n        uint amountBMin\r\n    ) internal virtual returns (uint amountA, uint amountB) {\r\n        // create the pair if it doesn't exist yet\r\n        if (ITestcoinFactory(factory).getPair(tokenA, tokenB) == address(0)) {\r\n            ITestcoinFactory(factory).createPair(tokenA, tokenB);\r\n        }\r\n        (uint reserveA, uint reserveB) = TestcoinSwapLibrary.getReserves(factory, tokenA, tokenB);\r\n        if (reserveA == 0 && reserveB == 0) {\r\n            (amountA, amountB) = (amountADesired, amountBDesired);\r\n        } else {\r\n            uint amountBOptimal = TestcoinSwapLibrary.quote(amountADesired, reserveA, reserveB);\r\n            if (amountBOptimal <= amountBDesired) {\r\n                require(amountBOptimal >= amountBMin, 'TestcoinSwapRouter: INSUFFICIENT_B_AMOUNT');\r\n                (amountA, amountB) = (amountADesired, amountBOptimal);\r\n            } else {\r\n                uint amountAOptimal = TestcoinSwapLibrary.quote(amountBDesired, reserveB, reserveA);\r\n                assert(amountAOptimal <= amountADesired);\r\n                require(amountAOptimal >= amountAMin, 'TestcoinSwapRouter: INSUFFICIENT_A_AMOUNT');\r\n                (amountA, amountB) = (amountAOptimal, amountBDesired);\r\n            }\r\n        }\r\n    }\r\n\r\n    function addLiquidity(\r\n        address tokenA,\r\n        address tokenB,\r\n        uint amountADesired,\r\n        uint amountBDesired,\r\n        uint amountAMin,\r\n        uint amountBMin,\r\n        address to,\r\n        uint deadline\r\n    )\r\n        external\r\n        virtual\r\n        override\r\n        ensure(deadline)\r\n        returns (\r\n            uint amountA,\r\n            uint amountB,\r\n            uint liquidity\r\n        )\r\n    {\r\n        (amountA, amountB) = _addLiquidity(tokenA, tokenB, amountADesired, amountBDesired, amountAMin, amountBMin);\r\n        address pair = TestcoinSwapLibrary.pairFor(factory, tokenA, tokenB);\r\n        TransferHelper.safeTransferFrom(tokenA, msg.sender, pair, amountA);\r\n        TransferHelper.safeTransferFrom(tokenB, msg.sender, pair, amountB);\r\n        liquidity = ITestcoinPair(pair).mint(to);\r\n    }\r\n\r\n    function addLiquidityBNB(\r\n        address token,\r\n        uint amountTokenDesired,\r\n        uint amountTokenMin,\r\n        uint amountBNBMin,\r\n        address to,\r\n        uint deadline\r\n    )\r\n        external\r\n        virtual\r\n        override\r\n        payable\r\n        ensure(deadline)\r\n        returns (\r\n            uint amountToken,\r\n            uint amountBNB,\r\n            uint liquidity\r\n        )\r\n    {\r\n        (amountToken, amountBNB) = _addLiquidity(\r\n            token,\r\n            WBNB,\r\n            amountTokenDesired,\r\n            msg.value,\r\n            amountTokenMin,\r\n            amountBNBMin\r\n        );\r\n        address pair = TestcoinSwapLibrary.pairFor(factory, token, WBNB);\r\n        TransferHelper.safeTransferFrom(token, msg.sender, pair, amountToken);\r\n        IWBNB(WBNB).deposit{value: amountBNB}();\r\n        assert(IWBNB(WBNB).transfer(pair, amountBNB));\r\n        liquidity = ITestcoinPair(pair).mint(to);\r\n        // refund dust bnb, if any\r\n        if (msg.value > amountBNB) TransferHelper.safeTransferBNB(msg.sender, msg.value - amountBNB);\r\n    }\r\n\r\n    // **** REMOVE LIQUIDITY ****\r\n    function removeLiquidity(\r\n        address tokenA,\r\n        address tokenB,\r\n        uint liquidity,\r\n        uint amountAMin,\r\n        uint amountBMin,\r\n        address to,\r\n        uint deadline\r\n    ) public virtual override ensure(deadline) returns (uint amountA, uint amountB) {\r\n        address pair = TestcoinSwapLibrary.pairFor(factory, tokenA, tokenB);\r\n        ITestcoinPair(pair).transferFrom(msg.sender, pair, liquidity); // send liquidity to pair\r\n        (uint amount0, uint amount1) = ITestcoinPair(pair).burn(to);\r\n        (address token0, ) = TestcoinSwapLibrary.sortTokens(tokenA, tokenB);\r\n        (amountA, amountB) = tokenA == token0 ? (amount0, amount1) : (amount1, amount0);\r\n        require(amountA >= amountAMin, 'TestcoinSwapRouter: INSUFFICIENT_A_AMOUNT');\r\n        require(amountB >= amountBMin, 'TestcoinSwapRouter: INSUFFICIENT_B_AMOUNT');\r\n    }\r\n\r\n    function removeLiquidityBNB(\r\n        address token,\r\n        uint liquidity,\r\n        uint amountTokenMin,\r\n        uint amountBNBMin,\r\n        address to,\r\n        uint deadline\r\n    ) public virtual override ensure(deadline) returns (uint amountToken, uint amountBNB) {\r\n        (amountToken, amountBNB) = removeLiquidity(\r\n            token,\r\n            WBNB,\r\n            liquidity,\r\n            amountTokenMin,\r\n            amountBNBMin,\r\n            address(this),\r\n            deadline\r\n        );\r\n        TransferHelper.safeTransfer(token, to, amountToken);\r\n        IWBNB(WBNB).withdraw(amountBNB);\r\n        TransferHelper.safeTransferBNB(to, amountBNB);\r\n    }\r\n\r\n    function removeLiquidityWithPermit(\r\n        address tokenA,\r\n        address tokenB,\r\n        uint liquidity,\r\n        uint amountAMin,\r\n        uint amountBMin,\r\n        address to,\r\n        uint deadline,\r\n        bool approveMax,\r\n        uint8 v,\r\n        bytes32 r,\r\n        bytes32 s\r\n    ) external virtual override returns (uint amountA, uint amountB) {\r\n        address pair = TestcoinSwapLibrary.pairFor(factory, tokenA, tokenB);\r\n        uint value = approveMax ? uint(-1) : liquidity;\r\n        ITestcoinPair(pair).permit(msg.sender, address(this), value, deadline, v, r, s);\r\n        (amountA, amountB) = removeLiquidity(tokenA, tokenB, liquidity, amountAMin, amountBMin, to, deadline);\r\n    }\r\n\r\n    function removeLiquidityBNBWithPermit(\r\n        address token,\r\n        uint liquidity,\r\n        uint amountTokenMin,\r\n        uint amountBNBMin,\r\n        address to,\r\n        uint deadline,\r\n        bool approveMax,\r\n        uint8 v,\r\n        bytes32 r,\r\n        bytes32 s\r\n    ) external virtual override returns (uint amountToken, uint amountBNB) {\r\n        address pair = TestcoinSwapLibrary.pairFor(factory, token, WBNB);\r\n        uint value = approveMax ? uint(-1) : liquidity;\r\n        ITestcoinPair(pair).permit(msg.sender, address(this), value, deadline, v, r, s);\r\n        (amountToken, amountBNB) = removeLiquidityBNB(token, liquidity, amountTokenMin, amountBNBMin, to, deadline);\r\n    }\r\n\r\n    // **** REMOVE LIQUIDITY (supporting fee-on-transfer tokens) ****\r\n    function removeLiquidityBNBSupportingFeeOnTransferTokens(\r\n        address token,\r\n        uint liquidity,\r\n        uint amountTokenMin,\r\n        uint amountBNBMin,\r\n        address to,\r\n        uint deadline\r\n    ) public virtual override ensure(deadline) returns (uint amountBNB) {\r\n        (, amountBNB) = removeLiquidity(token, WBNB, liquidity, amountTokenMin, amountBNBMin, address(this), deadline);\r\n        TransferHelper.safeTransfer(token, to, IBEP20(token).balanceOf(address(this)));\r\n        IWBNB(WBNB).withdraw(amountBNB);\r\n        TransferHelper.safeTransferBNB(to, amountBNB);\r\n    }\r\n\r\n    function removeLiquidityBNBWithPermitSupportingFeeOnTransferTokens(\r\n        address token,\r\n        uint liquidity,\r\n        uint amountTokenMin,\r\n        uint amountBNBMin,\r\n        address to,\r\n        uint deadline,\r\n        bool approveMax,\r\n        uint8 v,\r\n        bytes32 r,\r\n        bytes32 s\r\n    ) external virtual override returns (uint amountBNB) {\r\n        address pair = TestcoinSwapLibrary.pairFor(factory, token, WBNB);\r\n        uint value = approveMax ? uint(-1) : liquidity;\r\n        ITestcoinPair(pair).permit(msg.sender, address(this), value, deadline, v, r, s);\r\n        amountBNB = removeLiquidityBNBSupportingFeeOnTransferTokens(\r\n            token,\r\n            liquidity,\r\n            amountTokenMin,\r\n            amountBNBMin,\r\n            to,\r\n            deadline\r\n        );\r\n    }\r\n\r\n    // **** SWAP ****\r\n    // requires the initial amount to have already been sent to the first pair\r\n    function _swap(\r\n        uint[] memory amounts,\r\n        address[] memory path,\r\n        address _to\r\n    ) internal virtual {\r\n        for (uint i; i < path.length - 1; i++) {\r\n            (address input, address output) = (path[i], path[i + 1]);\r\n            (address token0, ) = TestcoinSwapLibrary.sortTokens(input, output);\r\n            uint amountOut = amounts[i + 1];\r\n            (uint amount0Out, uint amount1Out) = input == token0\r\n                ? (uint(0), amountOut)\r\n                : (amountOut, uint(0));\r\n            address to = i < path.length - 2 ? TestcoinSwapLibrary.pairFor(factory, output, path[i + 2]) : _to;\r\n            ITestcoinPair(TestcoinSwapLibrary.pairFor(factory, input, output)).swap(amount0Out, amount1Out, to, new bytes(0));\r\n        }\r\n    }\r\n\r\n     function swapExactTokensForTokens(\r\n        uint amountIn,\r\n        uint amountOutMin,\r\n        address[] calldata path,\r\n        address to,\r\n        uint deadline\r\n    ) external virtual override ensure(deadline) returns (uint[] memory amounts) {\r\n        amounts = TestcoinSwapLibrary.getAmountsOut(factory, amountIn, path);\r\n        require(amounts[amounts.length - 1] >= amountOutMin, 'TestcoinSwapRouter: INSUFFICIENT_OUTPUT_AMOUNT');\r\n        TransferHelper.safeTransferFrom(\r\n            path[0],\r\n            msg.sender,\r\n            TestcoinSwapLibrary.pairFor(factory, path[0], path[1]),\r\n            amounts[0]\r\n        );\r\n        _swap(amounts, path, to);\r\n    }\r\n\r\n    function swapTokensForExactTokens(\r\n        uint amountOut,\r\n        uint amountInMax,\r\n        address[] calldata path,\r\n        address to,\r\n        uint deadline\r\n    ) external virtual override ensure(deadline) returns (uint[] memory amounts) {\r\n        amounts = TestcoinSwapLibrary.getAmountsIn(factory, amountOut, path);\r\n        require(amounts[0] <= amountInMax, 'TestcoinSwapRouter: EXCESSIVE_INPUT_AMOUNT');\r\n        TransferHelper.safeTransferFrom(\r\n            path[0],\r\n            msg.sender,\r\n            TestcoinSwapLibrary.pairFor(factory, path[0], path[1]),\r\n            amounts[0]\r\n        );\r\n        _swap(amounts, path, to);\r\n    }\r\n\r\n     function swapExactBNBForTokens(\r\n        uint amountOutMin,\r\n        address[] calldata path,\r\n        address to,\r\n        uint deadline\r\n    ) external virtual override payable ensure(deadline) returns (uint[] memory amounts) {\r\n        require(path[0] == WBNB, 'TestcoinSwapRouter: INVALID_PATH');\r\n        amounts = TestcoinSwapLibrary.getAmountsOut(factory, msg.value, path);\r\n        require(amounts[amounts.length - 1] >= amountOutMin, 'TestcoinSwapRouter: INSUFFICIENT_OUTPUT_AMOUNT');\r\n        IWBNB(WBNB).deposit{value: amounts[0]}();\r\n        assert(IWBNB(WBNB).transfer(TestcoinSwapLibrary.pairFor(factory, path[0], path[1]), amounts[0]));\r\n        _swap(amounts, path, to);\r\n    }\r\n\r\n    function swapTokensForExactBNB(\r\n        uint amountOut,\r\n        uint amountInMax,\r\n        address[] calldata path,\r\n        address to,\r\n        uint deadline\r\n    ) external virtual override ensure(deadline) returns (uint[] memory amounts) {\r\n        require(path[path.length - 1] == WBNB, 'TestcoinSwapRouter: INVALID_PATH');\r\n        amounts = TestcoinSwapLibrary.getAmountsIn(factory, amountOut, path);\r\n        require(amounts[0] <= amountInMax, 'TestcoinSwapRouter: EXCESSIVE_INPUT_AMOUNT');\r\n        TransferHelper.safeTransferFrom(\r\n            path[0],\r\n            msg.sender,\r\n            TestcoinSwapLibrary.pairFor(factory, path[0], path[1]),\r\n            amounts[0]\r\n        );\r\n        _swap(amounts, path, address(this));\r\n        IWBNB(WBNB).withdraw(amounts[amounts.length - 1]);\r\n        TransferHelper.safeTransferBNB(to, amounts[amounts.length - 1]);\r\n    }\r\n\r\n     function swapExactTokensForBNB(\r\n        uint amountIn,\r\n        uint amountOutMin,\r\n        address[] calldata path,\r\n        address to,\r\n        uint deadline\r\n    ) external virtual override ensure(deadline) returns (uint[] memory amounts) {\r\n        require(path[path.length - 1] == WBNB, 'TestcoinSwapRouter: INVALID_PATH');\r\n        amounts = TestcoinSwapLibrary.getAmountsOut(factory, amountIn, path);\r\n        require(amounts[amounts.length - 1] >= amountOutMin, 'TestcoinSwapRouter: INSUFFICIENT_OUTPUT_AMOUNT');\r\n        TransferHelper.safeTransferFrom(\r\n            path[0],\r\n            msg.sender,\r\n            TestcoinSwapLibrary.pairFor(factory, path[0], path[1]),\r\n            amounts[0]\r\n        );\r\n        _swap(amounts, path, address(this));\r\n        IWBNB(WBNB).withdraw(amounts[amounts.length - 1]);\r\n        TransferHelper.safeTransferBNB(to, amounts[amounts.length - 1]);\r\n    }\r\n\r\n    function swapBNBForExactTokens(\r\n        uint amountOut,\r\n        address[] calldata path,\r\n        address to,\r\n        uint deadline\r\n    ) external virtual override payable ensure(deadline) returns (uint[] memory amounts) {\r\n        require(path[0] == WBNB, 'TestcoinSwapRouter: INVALID_PATH');\r\n        amounts = TestcoinSwapLibrary.getAmountsIn(factory, amountOut, path);\r\n        require(amounts[0] <= msg.value, 'TestcoinSwapRouter: EXCESSIVE_INPUT_AMOUNT');\r\n        IWBNB(WBNB).deposit{value: amounts[0]}();\r\n        assert(IWBNB(WBNB).transfer(TestcoinSwapLibrary.pairFor(factory, path[0], path[1]), amounts[0]));\r\n        _swap(amounts, path, to);\r\n        // refund dust bnb, if any\r\n        if (msg.value > amounts[0]) TransferHelper.safeTransferBNB(msg.sender, msg.value - amounts[0]);\r\n    }\r\n\r\n    // **** SWAP (supporting fee-on-transfer tokens) ****\r\n    // requires the initial amount to have already been sent to the first pair\r\n      function _swapSupportingFeeOnTransferTokens(address[] memory path, address _to) internal virtual {\r\n        for (uint i; i < path.length - 1; i++) {\r\n            (address input, address output) = (path[i], path[i + 1]);\r\n            (address token0, ) = TestcoinSwapLibrary.sortTokens(input, output);\r\n            ITestcoinPair pair = ITestcoinPair(TestcoinSwapLibrary.pairFor(factory, input, output));\r\n            uint amountInput;\r\n            uint amountOutput;\r\n            {\r\n                // scope to avoid stack too deep errors\r\n                (uint reserve0, uint reserve1, ) = pair.getReserves();\r\n                (uint reserveInput, uint reserveOutput) = input == token0\r\n                    ? (reserve0, reserve1)\r\n                    : (reserve1, reserve0);\r\n                amountInput = IBEP20(input).balanceOf(address(pair)).sub(reserveInput);\r\n                amountOutput = TestcoinSwapLibrary.getAmountOut(amountInput, reserveInput, reserveOutput);\r\n            }\r\n            (uint amount0Out, uint amount1Out) = input == token0\r\n                ? (uint(0), amountOutput)\r\n                : (amountOutput, uint(0));\r\n            address to = i < path.length - 2 ? TestcoinSwapLibrary.pairFor(factory, output, path[i + 2]) : _to;\r\n            pair.swap(amount0Out, amount1Out, to, new bytes(0));\r\n        }\r\n    }\r\n\r\n     function swapExactTokensForTokensSupportingFeeOnTransferTokens(\r\n        uint amountIn,\r\n        uint amountOutMin,\r\n        address[] calldata path,\r\n        address to,\r\n        uint deadline\r\n    ) external virtual override ensure(deadline) {\r\n        TransferHelper.safeTransferFrom(\r\n            path[0],\r\n            msg.sender,\r\n            TestcoinSwapLibrary.pairFor(factory, path[0], path[1]),\r\n            amountIn\r\n        );\r\n        uint balanceBefore = IBEP20(path[path.length - 1]).balanceOf(to);\r\n        _swapSupportingFeeOnTransferTokens(path, to);\r\n        require(\r\n            IBEP20(path[path.length - 1]).balanceOf(to).sub(balanceBefore) >= amountOutMin,\r\n            'TestcoinSwapRouter: INSUFFICIENT_OUTPUT_AMOUNT'\r\n        );\r\n    }\r\n\r\n    function swapExactBNBForTokensSupportingFeeOnTransferTokens(\r\n        uint amountOutMin,\r\n        address[] calldata path,\r\n        address to,\r\n        uint deadline\r\n    ) external virtual override payable ensure(deadline) {\r\n        require(path[0] == WBNB, 'TestcoinSwapRouter: INVALID_PATH');\r\n        uint amountIn = msg.value;\r\n        IWBNB(WBNB).deposit{value: amountIn}();\r\n        assert(IWBNB(WBNB).transfer(TestcoinSwapLibrary.pairFor(factory, path[0], path[1]), amountIn));\r\n        uint balanceBefore = IBEP20(path[path.length - 1]).balanceOf(to);\r\n        _swapSupportingFeeOnTransferTokens(path, to);\r\n        require(\r\n            IBEP20(path[path.length - 1]).balanceOf(to).sub(balanceBefore) >= amountOutMin,\r\n            'TestcoinSwapRouter: INSUFFICIENT_OUTPUT_AMOUNT'\r\n        );\r\n    }\r\n\r\n    function swapExactTokensForBNBSupportingFeeOnTransferTokens(\r\n        uint amountIn,\r\n        uint amountOutMin,\r\n        address[] calldata path,\r\n        address to,\r\n        uint deadline\r\n    ) external virtual override ensure(deadline) {\r\n        require(path[path.length - 1] == WBNB, 'TestcoinSwapRouter: INVALID_PATH');\r\n        TransferHelper.safeTransferFrom(\r\n            path[0],\r\n            msg.sender,\r\n            TestcoinSwapLibrary.pairFor(factory, path[0], path[1]),\r\n            amountIn\r\n        );\r\n        _swapSupportingFeeOnTransferTokens(path, address(this));\r\n        uint amountOut = IBEP20(WBNB).balanceOf(address(this));\r\n        require(amountOut >= amountOutMin, 'TestcoinSwapRouter: INSUFFICIENT_OUTPUT_AMOUNT');\r\n        IWBNB(WBNB).withdraw(amountOut);\r\n        TransferHelper.safeTransferBNB(to, amountOut);\r\n    }\r\n\r\n    // **** LIBRARY FUNCTIONS ****\r\n    function quote(\r\n        uint amountA,\r\n        uint reserveA,\r\n        uint reserveB\r\n    ) public virtual override pure returns (uint amountB) {\r\n        return TestcoinSwapLibrary.quote(amountA, reserveA, reserveB);\r\n    }\r\n\r\n    function getAmountOut(\r\n        uint amountIn,\r\n        uint reserveIn,\r\n        uint reserveOut\r\n    ) public virtual override pure returns (uint amountOut) {\r\n        return TestcoinSwapLibrary.getAmountOut(amountIn, reserveIn, reserveOut);\r\n    }\r\n\r\n    function getAmountIn(\r\n        uint amountOut,\r\n        uint reserveIn,\r\n        uint reserveOut\r\n    ) public virtual override pure returns (uint amountIn) {\r\n        return TestcoinSwapLibrary.getAmountIn(amountOut, reserveIn, reserveOut);\r\n    }\r\n\r\n    function getAmountsOut(uint amountIn, address[] memory path)\r\n        public\r\n        virtual\r\n        override\r\n        view\r\n        returns (uint[] memory amounts)\r\n    {\r\n        return TestcoinSwapLibrary.getAmountsOut(factory, amountIn, path);\r\n    }\r\n\r\n    function getAmountsIn(uint amountOut, address[] memory path)\r\n        public\r\n        virtual\r\n        override\r\n        view\r\n        returns (uint[] memory amounts)\r\n    {\r\n        return TestcoinSwapLibrary.getAmountsIn(factory, amountOut, path);\r\n    }\r\n}\r\n",
  "sourcePath": "C:/Users/Dell/documents/Myproject_test08/testcoin-swap-periphery/contracts/TestcoinSwapRouter.sol",
  "compiler": {
    "name": "solc",
    "version": "0.6.6+commit.6c089d02.Emscripten.clang"
  },
  "schemaVersion": "3.4.1",
  "updatedAt": "2021-07-28T05:10:43.273Z",
  "devdoc": {
    "methods": {}
  },
  "userdoc": {
    "methods": {}
  }
}