{
  "contractName": "TestcoinMaster",
  "abi": [
    {
      "inputs": [
        {
          "internalType": "contract TestcoinToken",
          "name": "_bake",
          "type": "address"
        },
        {
          "internalType": "address",
          "name": "_devAddr",
          "type": "address"
        },
        {
          "internalType": "uint256",
          "name": "_bakeStartBlock",
          "type": "uint256"
        },
        {
          "internalType": "uint256",
          "name": "_startBlock",
          "type": "uint256"
        },
        {
          "internalType": "uint256",
          "name": "_bonusEndBlock",
          "type": "uint256"
        },
        {
          "internalType": "uint256",
          "name": "_bonusBeforeBulkBlockSize",
          "type": "uint256"
        },
        {
          "internalType": "uint256",
          "name": "_bonusBeforeCommonDifference",
          "type": "uint256"
        },
        {
          "internalType": "uint256",
          "name": "_bonusEndCommonDifference",
          "type": "uint256"
        }
      ],
      "stateMutability": "nonpayable",
      "type": "constructor"
    },
    {
      "anonymous": false,
      "inputs": [
        {
          "indexed": true,
          "internalType": "address",
          "name": "user",
          "type": "address"
        },
        {
          "indexed": true,
          "internalType": "address",
          "name": "poolAddress",
          "type": "address"
        },
        {
          "indexed": false,
          "internalType": "uint256",
          "name": "amount",
          "type": "uint256"
        }
      ],
      "name": "Deposit",
      "type": "event"
    },
    {
      "anonymous": false,
      "inputs": [
        {
          "indexed": true,
          "internalType": "address",
          "name": "user",
          "type": "address"
        },
        {
          "indexed": true,
          "internalType": "address",
          "name": "poolAddress",
          "type": "address"
        },
        {
          "indexed": false,
          "internalType": "uint256",
          "name": "amount",
          "type": "uint256"
        }
      ],
      "name": "EmergencyWithdraw",
      "type": "event"
    },
    {
      "anonymous": false,
      "inputs": [
        {
          "indexed": true,
          "internalType": "address",
          "name": "previousOwner",
          "type": "address"
        },
        {
          "indexed": true,
          "internalType": "address",
          "name": "newOwner",
          "type": "address"
        }
      ],
      "name": "OwnershipTransferred",
      "type": "event"
    },
    {
      "anonymous": false,
      "inputs": [
        {
          "indexed": true,
          "internalType": "address",
          "name": "user",
          "type": "address"
        },
        {
          "indexed": true,
          "internalType": "address",
          "name": "poolAddress",
          "type": "address"
        },
        {
          "indexed": false,
          "internalType": "uint256",
          "name": "amount",
          "type": "uint256"
        }
      ],
      "name": "Withdraw",
      "type": "event"
    },
    {
      "inputs": [],
      "name": "accBakePerShareMultiple",
      "outputs": [
        {
          "internalType": "uint256",
          "name": "",
          "type": "uint256"
        }
      ],
      "stateMutability": "view",
      "type": "function"
    },
    {
      "inputs": [],
      "name": "bake",
      "outputs": [
        {
          "internalType": "contract TestcoinToken",
          "name": "",
          "type": "address"
        }
      ],
      "stateMutability": "view",
      "type": "function"
    },
    {
      "inputs": [],
      "name": "bakeBonusEndBlock",
      "outputs": [
        {
          "internalType": "uint256",
          "name": "",
          "type": "uint256"
        }
      ],
      "stateMutability": "view",
      "type": "function"
    },
    {
      "inputs": [],
      "name": "bakeStartBlock",
      "outputs": [
        {
          "internalType": "uint256",
          "name": "",
          "type": "uint256"
        }
      ],
      "stateMutability": "view",
      "type": "function"
    },
    {
      "inputs": [],
      "name": "bonusBeforeBulkBlockSize",
      "outputs": [
        {
          "internalType": "uint256",
          "name": "",
          "type": "uint256"
        }
      ],
      "stateMutability": "view",
      "type": "function"
    },
    {
      "inputs": [],
      "name": "bonusBeforeCommonDifference",
      "outputs": [
        {
          "internalType": "uint256",
          "name": "",
          "type": "uint256"
        }
      ],
      "stateMutability": "view",
      "type": "function"
    },
    {
      "inputs": [],
      "name": "bonusEndBlock",
      "outputs": [
        {
          "internalType": "uint256",
          "name": "",
          "type": "uint256"
        }
      ],
      "stateMutability": "view",
      "type": "function"
    },
    {
      "inputs": [],
      "name": "bonusEndBulkBlockSize",
      "outputs": [
        {
          "internalType": "uint256",
          "name": "",
          "type": "uint256"
        }
      ],
      "stateMutability": "view",
      "type": "function"
    },
    {
      "inputs": [],
      "name": "bonusEndCommonDifference",
      "outputs": [
        {
          "internalType": "uint256",
          "name": "",
          "type": "uint256"
        }
      ],
      "stateMutability": "view",
      "type": "function"
    },
    {
      "inputs": [],
      "name": "devAddr",
      "outputs": [
        {
          "internalType": "address",
          "name": "",
          "type": "address"
        }
      ],
      "stateMutability": "view",
      "type": "function"
    },
    {
      "inputs": [],
      "name": "maxRewardBlockNumber",
      "outputs": [
        {
          "internalType": "uint256",
          "name": "",
          "type": "uint256"
        }
      ],
      "stateMutability": "view",
      "type": "function"
    },
    {
      "inputs": [],
      "name": "owner",
      "outputs": [
        {
          "internalType": "address",
          "name": "",
          "type": "address"
        }
      ],
      "stateMutability": "view",
      "type": "function"
    },
    {
      "inputs": [
        {
          "internalType": "uint256",
          "name": "",
          "type": "uint256"
        }
      ],
      "name": "poolAddresses",
      "outputs": [
        {
          "internalType": "address",
          "name": "",
          "type": "address"
        }
      ],
      "stateMutability": "view",
      "type": "function"
    },
    {
      "inputs": [
        {
          "internalType": "address",
          "name": "",
          "type": "address"
        }
      ],
      "name": "poolInfoMap",
      "outputs": [
        {
          "internalType": "uint256",
          "name": "allocPoint",
          "type": "uint256"
        },
        {
          "internalType": "uint256",
          "name": "lastRewardBlock",
          "type": "uint256"
        },
        {
          "internalType": "uint256",
          "name": "accBakePerShare",
          "type": "uint256"
        },
        {
          "internalType": "bool",
          "name": "exists",
          "type": "bool"
        }
      ],
      "stateMutability": "view",
      "type": "function"
    },
    {
      "inputs": [
        {
          "internalType": "address",
          "name": "",
          "type": "address"
        },
        {
          "internalType": "address",
          "name": "",
          "type": "address"
        }
      ],
      "name": "poolUserInfoMap",
      "outputs": [
        {
          "internalType": "uint256",
          "name": "amount",
          "type": "uint256"
        },
        {
          "internalType": "uint256",
          "name": "rewardDebt",
          "type": "uint256"
        }
      ],
      "stateMutability": "view",
      "type": "function"
    },
    {
      "inputs": [],
      "name": "renounceOwnership",
      "outputs": [],
      "stateMutability": "nonpayable",
      "type": "function"
    },
    {
      "inputs": [],
      "name": "startBlock",
      "outputs": [
        {
          "internalType": "uint256",
          "name": "",
          "type": "uint256"
        }
      ],
      "stateMutability": "view",
      "type": "function"
    },
    {
      "inputs": [],
      "name": "totalAllocPoint",
      "outputs": [
        {
          "internalType": "uint256",
          "name": "",
          "type": "uint256"
        }
      ],
      "stateMutability": "view",
      "type": "function"
    },
    {
      "inputs": [
        {
          "internalType": "address",
          "name": "newOwner",
          "type": "address"
        }
      ],
      "name": "transferOwnership",
      "outputs": [],
      "stateMutability": "nonpayable",
      "type": "function"
    },
    {
      "inputs": [],
      "name": "poolLength",
      "outputs": [
        {
          "internalType": "uint256",
          "name": "",
          "type": "uint256"
        }
      ],
      "stateMutability": "view",
      "type": "function"
    },
    {
      "inputs": [
        {
          "internalType": "uint256",
          "name": "_allocPoint",
          "type": "uint256"
        },
        {
          "internalType": "address",
          "name": "_pair",
          "type": "address"
        },
        {
          "internalType": "bool",
          "name": "_withUpdate",
          "type": "bool"
        }
      ],
      "name": "add",
      "outputs": [],
      "stateMutability": "nonpayable",
      "type": "function"
    },
    {
      "inputs": [
        {
          "internalType": "address",
          "name": "_pair",
          "type": "address"
        },
        {
          "internalType": "uint256",
          "name": "_allocPoint",
          "type": "uint256"
        },
        {
          "internalType": "bool",
          "name": "_withUpdate",
          "type": "bool"
        }
      ],
      "name": "set",
      "outputs": [],
      "stateMutability": "nonpayable",
      "type": "function"
    },
    {
      "inputs": [
        {
          "internalType": "address",
          "name": "_pair",
          "type": "address"
        }
      ],
      "name": "existsPool",
      "outputs": [
        {
          "internalType": "bool",
          "name": "",
          "type": "bool"
        }
      ],
      "stateMutability": "view",
      "type": "function"
    },
    {
      "inputs": [
        {
          "internalType": "uint256",
          "name": "_from",
          "type": "uint256"
        },
        {
          "internalType": "uint256",
          "name": "_to",
          "type": "uint256"
        },
        {
          "internalType": "uint256",
          "name": "_bakeInitBlock",
          "type": "uint256"
        },
        {
          "internalType": "uint256",
          "name": "_bulkBlockSize",
          "type": "uint256"
        },
        {
          "internalType": "uint256",
          "name": "_commonDifference",
          "type": "uint256"
        }
      ],
      "name": "getTotalRewardInfoInSameCommonDifference",
      "outputs": [
        {
          "internalType": "uint256",
          "name": "totalReward",
          "type": "uint256"
        }
      ],
      "stateMutability": "view",
      "type": "function"
    },
    {
      "inputs": [
        {
          "internalType": "uint256",
          "name": "_from",
          "type": "uint256"
        },
        {
          "internalType": "uint256",
          "name": "_to",
          "type": "uint256"
        }
      ],
      "name": "getTotalRewardInfo",
      "outputs": [
        {
          "internalType": "uint256",
          "name": "totalReward",
          "type": "uint256"
        }
      ],
      "stateMutability": "view",
      "type": "function"
    },
    {
      "inputs": [
        {
          "internalType": "address",
          "name": "_pair",
          "type": "address"
        },
        {
          "internalType": "address",
          "name": "_user",
          "type": "address"
        }
      ],
      "name": "pendingBake",
      "outputs": [
        {
          "internalType": "uint256",
          "name": "",
          "type": "uint256"
        }
      ],
      "stateMutability": "view",
      "type": "function"
    },
    {
      "inputs": [],
      "name": "massUpdatePools",
      "outputs": [],
      "stateMutability": "nonpayable",
      "type": "function"
    },
    {
      "inputs": [
        {
          "internalType": "address",
          "name": "_pair",
          "type": "address"
        }
      ],
      "name": "updatePool",
      "outputs": [],
      "stateMutability": "nonpayable",
      "type": "function"
    },
    {
      "inputs": [
        {
          "internalType": "address",
          "name": "_pair",
          "type": "address"
        },
        {
          "internalType": "uint256",
          "name": "_amount",
          "type": "uint256"
        }
      ],
      "name": "deposit",
      "outputs": [],
      "stateMutability": "nonpayable",
      "type": "function"
    },
    {
      "inputs": [
        {
          "internalType": "address",
          "name": "_pair",
          "type": "address"
        },
        {
          "internalType": "uint256",
          "name": "_amount",
          "type": "uint256"
        }
      ],
      "name": "withdraw",
      "outputs": [],
      "stateMutability": "nonpayable",
      "type": "function"
    },
    {
      "inputs": [
        {
          "internalType": "address",
          "name": "_pair",
          "type": "address"
        }
      ],
      "name": "emergencyWithdraw",
      "outputs": [],
      "stateMutability": "nonpayable",
      "type": "function"
    },
    {
      "inputs": [
        {
          "internalType": "address",
          "name": "_devAddr",
          "type": "address"
        }
      ],
      "name": "dev",
      "outputs": [],
      "stateMutability": "nonpayable",
      "type": "function"
    }
  ],
  "bytecode": "0x6080604052600060025564e8d4a51000600b553480156200001f57600080fd5b5060405162003ab938038062003ab983398181016040526101008110156200004657600080fd5b8101908080519060200190929190805190602001909291908051906020019092919080519060200190929190805190602001909291908051906020019092919080519060200190929190805190602001909291905050506000620000af6200039a60201b60201c565b9050806000806101000a81548173ffffffffffffffffffffffffffffffffffffffff021916908373ffffffffffffffffffffffffffffffffffffffff1602179055508073ffffffffffffffffffffffffffffffffffffffff16600073ffffffffffffffffffffffffffffffffffffffff167f8be0079c531659141344cd1fd0a4f28419497f9722a3daafe3b4186f6b6457e060405160405180910390a35087600c60006101000a81548173ffffffffffffffffffffffffffffffffffffffff021916908373ffffffffffffffffffffffffffffffffffffffff16021790555086600d60006101000a81548173ffffffffffffffffffffffffffffffffffffffff021916908373ffffffffffffffffffffffffffffffffffffffff160217905550856001819055508460038190555083600481905550826005819055508160098190555080600a8190555062000217600354600454620003a260201b6200259f1790919060201c565b60068190555062000312600654620002fe62000246600554600654620003f460201b620026f71790919060201c565b620002ea600554620002d6620002bf600954620002ab60016200029760055462000283600354600454620003a260201b6200259f1790919060201c565b620003f460201b620026f71790919060201c565b620003a260201b6200259f1790919060201c565b6200044660201b620026711790919060201c565b600154620003a260201b6200259f1790919060201c565b6200044660201b620026711790919060201c565b6200044660201b620026711790919060201c565b620003f460201b620026f71790919060201c565b600781905550620003866200036f62000358600162000344600a54600754620003f460201b620026f71790919060201c565b620004d160201b620025e91790919060201c565b6006546200044660201b620026711790919060201c565b600354620004d160201b620025e91790919060201c565b6008819055505050505050505050620006e9565b600033905090565b6000620003ec83836040518060400160405280601e81526020017f536166654d6174683a207375627472616374696f6e206f766572666c6f7700008152506200055a60201b60201c565b905092915050565b60006200043e83836040518060400160405280601a81526020017f536166654d6174683a206469766973696f6e206279207a65726f0000000000008152506200061e60201b60201c565b905092915050565b6000808314156200045b5760009050620004cb565b60008284029050828482816200046d57fe5b0414620004c6576040517f08c379a000000000000000000000000000000000000000000000000000000000815260040180806020018281038252602181526020018062003a986021913960400191505060405180910390fd5b809150505b92915050565b60008082840190508381101562000550576040517f08c379a000000000000000000000000000000000000000000000000000000000815260040180806020018281038252601b8152602001807f536166654d6174683a206164646974696f6e206f766572666c6f77000000000081525060200191505060405180910390fd5b8091505092915050565b60008383111582906200060b576040517f08c379a00000000000000000000000000000000000000000000000000000000081526004018080602001828103825283818151815260200191508051906020019080838360005b83811015620005cf578082015181840152602081019050620005b2565b50505050905090810190601f168015620005fd5780820380516001836020036101000a031916815260200191505b509250505060405180910390fd5b5060008385039050809150509392505050565b60008083118290620006ce576040517f08c379a00000000000000000000000000000000000000000000000000000000081526004018080602001828103825283818151815260200191508051906020019080838360005b838110156200069257808201518184015260208101905062000675565b50505050905090810190601f168015620006c05780820380516001836020036101000a031916815260200191505b509250505060405180910390fd5b506000838581620006db57fe5b049050809150509392505050565b61339f80620006f96000396000f3fe608060405234801561001057600080fd5b50600436106101f05760003560e01c8063715018a61161010f578063b0de262e116100a2578063ebfe436311610071578063ebfe436314610879578063f2fde38b14610897578063f3fef3a3146108db578063feb21b9c14610929576101f0565b8063b0de262e146107a9578063c97ab21a146107f3578063cedbcf2714610811578063da09c72c1461082f576101f0565b806393190c96116100de57806393190c96146106e5578063a2edfe3c14610703578063a55b920714610721578063a5f8d4e61461078b576101f0565b8063715018a6146106095780637b46c54f146106135780638d88a90e146106575780638da5cb5b1461069b576101f0565b8063349e2cc61161018757806361235c7b1161015657806361235c7b146104e7578063630b5ba1146105435780636cc75a0c1461054d5780636ff1c9bc146105c5576101f0565b8063349e2cc6146103b057806334ace417146103fc57806347e7ef241461047b57806348cd4cb1146104c9576101f0565b806317caf6f1116101c357806317caf6f1146102fc5780631aed65531461031a5780631eaaa045146103385780632d3f7fcb14610392576101f0565b8063081e3eda146101f55780630b13919414610213578063114b338b1461026d5780631218c5981461028b575b600080fd5b6101fd610997565b6040518082815260200191505060405180910390f35b61026b6004803603606081101561022957600080fd5b81019080803573ffffffffffffffffffffffffffffffffffffffff169060200190929190803590602001909291908035151590602001909291905050506109a4565b005b610275610b83565b6040518082815260200191505060405180910390f35b6102cd600480360360208110156102a157600080fd5b81019080803573ffffffffffffffffffffffffffffffffffffffff169060200190929190505050610b89565b604051808581526020018481526020018381526020018215151515815260200194505050505060405180910390f35b610304610bc6565b6040518082815260200191505060405180910390f35b610322610bcc565b6040518082815260200191505060405180910390f35b6103906004803603606081101561034e57600080fd5b8101908080359060200190929190803573ffffffffffffffffffffffffffffffffffffffff169060200190929190803515159060200190929190505050610bd2565b005b61039a610e47565b6040518082815260200191505060405180910390f35b6103e6600480360360408110156103c657600080fd5b810190808035906020019092919080359060200190929190505050610e4d565b6040518082815260200191505060405180910390f35b61045e6004803603604081101561041257600080fd5b81019080803573ffffffffffffffffffffffffffffffffffffffff169060200190929190803573ffffffffffffffffffffffffffffffffffffffff169060200190929190505050610eda565b604051808381526020018281526020019250505060405180910390f35b6104c76004803603604081101561049157600080fd5b81019080803573ffffffffffffffffffffffffffffffffffffffff16906020019092919080359060200190929190505050610f0b565b005b6104d1611131565b6040518082815260200191505060405180910390f35b610529600480360360208110156104fd57600080fd5b81019080803573ffffffffffffffffffffffffffffffffffffffff169060200190929190505050611137565b604051808215151515815260200191505060405180910390f35b61054b611190565b005b6105af6004803603604081101561056357600080fd5b81019080803573ffffffffffffffffffffffffffffffffffffffff169060200190929190803573ffffffffffffffffffffffffffffffffffffffff1690602001909291905050506111f7565b6040518082815260200191505060405180910390f35b610607600480360360208110156105db57600080fd5b81019080803573ffffffffffffffffffffffffffffffffffffffff1690602001909291905050506114d5565b005b610611611605565b005b6106556004803603602081101561062957600080fd5b81019080803573ffffffffffffffffffffffffffffffffffffffff16906020019092919050505061178d565b005b6106996004803603602081101561066d57600080fd5b81019080803573ffffffffffffffffffffffffffffffffffffffff169060200190929190505050611b34565b005b6106a3611c3b565b604051808273ffffffffffffffffffffffffffffffffffffffff1673ffffffffffffffffffffffffffffffffffffffff16815260200191505060405180910390f35b6106ed611c64565b6040518082815260200191505060405180910390f35b61070b611c6a565b6040518082815260200191505060405180910390f35b610775600480360360a081101561073757600080fd5b810190808035906020019092919080359060200190929190803590602001909291908035906020019092919080359060200190929190505050611c70565b6040518082815260200191505060405180910390f35b610793612188565b6040518082815260200191505060405180910390f35b6107b161218e565b604051808273ffffffffffffffffffffffffffffffffffffffff1673ffffffffffffffffffffffffffffffffffffffff16815260200191505060405180910390f35b6107fb6121b4565b6040518082815260200191505060405180910390f35b6108196121ba565b6040518082815260200191505060405180910390f35b6108376121c0565b604051808273ffffffffffffffffffffffffffffffffffffffff1673ffffffffffffffffffffffffffffffffffffffff16815260200191505060405180910390f35b6108816121e6565b6040518082815260200191505060405180910390f35b6108d9600480360360208110156108ad57600080fd5b81019080803573ffffffffffffffffffffffffffffffffffffffff1690602001909291905050506121ec565b005b610927600480360360408110156108f157600080fd5b81019080803573ffffffffffffffffffffffffffffffffffffffff169060200190929190803590602001909291905050506122c1565b005b6109556004803603602081101561093f57600080fd5b810190808035906020019092919050505061255b565b604051808273ffffffffffffffffffffffffffffffffffffffff1673ffffffffffffffffffffffffffffffffffffffff16815260200191505060405180910390f35b6000600e80549050905090565b6109ac612597565b73ffffffffffffffffffffffffffffffffffffffff166000809054906101000a900473ffffffffffffffffffffffffffffffffffffffff1673ffffffffffffffffffffffffffffffffffffffff1614610a6d576040517f08c379a00000000000000000000000000000000000000000000000000000000081526004018080602001828103825260208152602001807f4f776e61626c653a2063616c6c6572206973206e6f7420746865206f776e657281525060200191505060405180910390fd5b8015610a7c57610a7b611190565b5b6000600f60008573ffffffffffffffffffffffffffffffffffffffff1673ffffffffffffffffffffffffffffffffffffffff16815260200190815260200160002090508060030160009054906101000a900460ff16610b43576040517f08c379a000000000000000000000000000000000000000000000000000000000815260040180806020018281038252600f8152602001807f706f6f6c206e6f7420657869737473000000000000000000000000000000000081525060200191505060405180910390fd5b610b6e83610b60836000015460025461259f90919063ffffffff16565b6125e990919063ffffffff16565b60028190555082816000018190555050505050565b600a5481565b600f6020528060005260406000206000915090508060000154908060010154908060020154908060030160009054906101000a900460ff16905084565b60025481565b60045481565b610bda612597565b73ffffffffffffffffffffffffffffffffffffffff166000809054906101000a900473ffffffffffffffffffffffffffffffffffffffff1673ffffffffffffffffffffffffffffffffffffffff1614610c9b576040517f08c379a00000000000000000000000000000000000000000000000000000000081526004018080602001828103825260208152602001807f4f776e61626c653a2063616c6c6572206973206e6f7420746865206f776e657281525060200191505060405180910390fd5b8015610caa57610ca9611190565b5b6000600f60008473ffffffffffffffffffffffffffffffffffffffff1673ffffffffffffffffffffffffffffffffffffffff16815260200190815260200160002090508060030160009054906101000a900460ff1615610d72576040517f08c379a00000000000000000000000000000000000000000000000000000000081526004018080602001828103825260138152602001807f706f6f6c20616c7265616479206578697374730000000000000000000000000081525060200191505060405180910390fd5b60006003544311610d8557600354610d87565b435b9050610d9e856002546125e990919063ffffffff16565b6002819055508482600001819055508082600101819055506000826002018190555060018260030160006101000a81548160ff021916908315150217905550600e849080600181540180825580915050600190039060005260206000200160009091909190916101000a81548173ffffffffffffffffffffffffffffffffffffffff021916908373ffffffffffffffffffffffffffffffffffffffff1602179055505050505050565b60055481565b60006004548211610e7257610e6b8383600154600554600954611c70565b9050610ed4565b6004548310610e9557610e8e8383600754600654600a54611c70565b9050610ed3565b610ed0610ead60045484600754600654600a54611c70565b610ec285600454600154600554600954611c70565b6125e990919063ffffffff16565b90505b5b92915050565b6010602052816000526040600020602052806000526040600020600091509150508060000154908060010154905082565b6000600f60008473ffffffffffffffffffffffffffffffffffffffff1673ffffffffffffffffffffffffffffffffffffffff16815260200190815260200160002090506000601060008573ffffffffffffffffffffffffffffffffffffffff1673ffffffffffffffffffffffffffffffffffffffff16815260200190815260200160002060003373ffffffffffffffffffffffffffffffffffffffff1673ffffffffffffffffffffffffffffffffffffffff1681526020019081526020016000209050610fd78461178d565b60008160000154111561104357600061102b826001015461101d600b5461100f8760020154876000015461267190919063ffffffff16565b6126f790919063ffffffff16565b61259f90919063ffffffff16565b90506000811115611041576110403382612741565b5b505b6110703330858773ffffffffffffffffffffffffffffffffffffffff166129fc909392919063ffffffff16565b6110878382600001546125e990919063ffffffff16565b81600001819055506110be600b546110b08460020154846000015461267190919063ffffffff16565b6126f790919063ffffffff16565b81600101819055508373ffffffffffffffffffffffffffffffffffffffff163373ffffffffffffffffffffffffffffffffffffffff167f5548c837ab068cf56a2c2479df0882a4922fd203edb7517321831d95078c5f62856040518082815260200191505060405180910390a350505050565b60035481565b6000600f60008373ffffffffffffffffffffffffffffffffffffffff1673ffffffffffffffffffffffffffffffffffffffff16815260200190815260200160002060030160009054906101000a900460ff169050919050565b6000600e80549050905060008090505b818110156111f3576111e8600e82815481106111b857fe5b9060005260206000200160009054906101000a900473ffffffffffffffffffffffffffffffffffffffff1661178d565b8060010190506111a0565b5050565b60006112016132ce565b600f60008573ffffffffffffffffffffffffffffffffffffffff1673ffffffffffffffffffffffffffffffffffffffff1681526020019081526020016000206040518060800160405290816000820154815260200160018201548152602001600282015481526020016003820160009054906101000a900460ff161515151581525050905080606001516112995760009150506114cf565b6000601060008673ffffffffffffffffffffffffffffffffffffffff1673ffffffffffffffffffffffffffffffffffffffff16815260200190815260200160002060008573ffffffffffffffffffffffffffffffffffffffff1673ffffffffffffffffffffffffffffffffffffffff168152602001908152602001600020905060008260400151905060008673ffffffffffffffffffffffffffffffffffffffff166370a08231306040518263ffffffff1660e01b8152600401808273ffffffffffffffffffffffffffffffffffffffff1673ffffffffffffffffffffffffffffffffffffffff16815260200191505060206040518083038186803b1580156113a157600080fd5b505afa1580156113b5573d6000803e3d6000fd5b505050506040513d60208110156113cb57600080fd5b810190808051906020019092919050505090508360200151431180156113f2575060008114155b801561140357506008548460200151105b15611487576000611418856020015143610e4d565b9050600061144760025461143988600001518561267190919063ffffffff16565b6126f790919063ffffffff16565b905061148261147384611465600b548561267190919063ffffffff16565b6126f790919063ffffffff16565b856125e990919063ffffffff16565b935050505b6114c883600101546114ba600b546114ac86886000015461267190919063ffffffff16565b6126f790919063ffffffff16565b61259f90919063ffffffff16565b9450505050505b92915050565b6000601060008373ffffffffffffffffffffffffffffffffffffffff1673ffffffffffffffffffffffffffffffffffffffff16815260200190815260200160002060003373ffffffffffffffffffffffffffffffffffffffff1673ffffffffffffffffffffffffffffffffffffffff16815260200190815260200160002090506115843382600001548473ffffffffffffffffffffffffffffffffffffffff16612ae99092919063ffffffff16565b8173ffffffffffffffffffffffffffffffffffffffff163373ffffffffffffffffffffffffffffffffffffffff167ff24ef89f38eadc1bde50701ad6e4d6d11a2dc24f7cf834a486991f388332850483600001546040518082815260200191505060405180910390a360008160000181905550600081600101819055505050565b61160d612597565b73ffffffffffffffffffffffffffffffffffffffff166000809054906101000a900473ffffffffffffffffffffffffffffffffffffffff1673ffffffffffffffffffffffffffffffffffffffff16146116ce576040517f08c379a00000000000000000000000000000000000000000000000000000000081526004018080602001828103825260208152602001807f4f776e61626c653a2063616c6c6572206973206e6f7420746865206f776e657281525060200191505060405180910390fd5b600073ffffffffffffffffffffffffffffffffffffffff166000809054906101000a900473ffffffffffffffffffffffffffffffffffffffff1673ffffffffffffffffffffffffffffffffffffffff167f8be0079c531659141344cd1fd0a4f28419497f9722a3daafe3b4186f6b6457e060405160405180910390a360008060006101000a81548173ffffffffffffffffffffffffffffffffffffffff021916908373ffffffffffffffffffffffffffffffffffffffff160217905550565b6000600f60008373ffffffffffffffffffffffffffffffffffffffff1673ffffffffffffffffffffffffffffffffffffffff16815260200190815260200160002090508060030160009054906101000a900460ff1615806117f2575080600101544311155b156117fd5750611b31565b60008273ffffffffffffffffffffffffffffffffffffffff166370a08231306040518263ffffffff1660e01b8152600401808273ffffffffffffffffffffffffffffffffffffffff1673ffffffffffffffffffffffffffffffffffffffff16815260200191505060206040518083038186803b15801561187c57600080fd5b505afa158015611890573d6000803e3d6000fd5b505050506040513d60208110156118a657600080fd5b8101908080519060200190929190505050905060008114156118d2574382600101819055505050611b31565b6008548260010154106118e6575050611b31565b60006118f6836001015443610e4d565b9050600061192560025461191786600001548561267190919063ffffffff16565b6126f790919063ffffffff16565b9050600c60009054906101000a900473ffffffffffffffffffffffffffffffffffffffff1673ffffffffffffffffffffffffffffffffffffffff1663449a52f8600d60009054906101000a900473ffffffffffffffffffffffffffffffffffffffff1661199c6064856126f790919063ffffffff16565b6040518363ffffffff1660e01b8152600401808373ffffffffffffffffffffffffffffffffffffffff1673ffffffffffffffffffffffffffffffffffffffff16815260200182815260200192505050600060405180830381600087803b158015611a0557600080fd5b505af1158015611a19573d6000803e3d6000fd5b50505050600c60009054906101000a900473ffffffffffffffffffffffffffffffffffffffff1673ffffffffffffffffffffffffffffffffffffffff1663449a52f830836040518363ffffffff1660e01b8152600401808373ffffffffffffffffffffffffffffffffffffffff1673ffffffffffffffffffffffffffffffffffffffff16815260200182815260200192505050600060405180830381600087803b158015611ac657600080fd5b505af1158015611ada573d6000803e3d6000fd5b50505050611b1b611b0884611afa600b548561267190919063ffffffff16565b6126f790919063ffffffff16565b85600201546125e990919063ffffffff16565b8460020181905550438460010181905550505050505b50565b600d60009054906101000a900473ffffffffffffffffffffffffffffffffffffffff1673ffffffffffffffffffffffffffffffffffffffff163373ffffffffffffffffffffffffffffffffffffffff1614611bf7576040517f08c379a00000000000000000000000000000000000000000000000000000000081526004018080602001828103825260098152602001807f6465763a207775743f000000000000000000000000000000000000000000000081525060200191505060405180910390fd5b80600d60006101000a81548173ffffffffffffffffffffffffffffffffffffffff021916908373ffffffffffffffffffffffffffffffffffffffff16021790555050565b60008060009054906101000a900473ffffffffffffffffffffffffffffffffffffffff16905090565b60075481565b600b5481565b6000600354851080611c8457508560085411155b15611c92576000905061217f565b600354861015611ca25760035495505b846008541015611cb25760085494505b6000611d276000611ce086611cd26003548b61259f90919063ffffffff16565b612ba190919063ffffffff16565b11611cec576000611cef565b60015b60ff16611d1986611d0b6003548b61259f90919063ffffffff16565b6126f790919063ffffffff16565b6125e990919063ffffffff16565b90506001811015611d3757600190505b6000611dac6000611d6587611d576003548d61259f90919063ffffffff16565b612ba190919063ffffffff16565b11611d71576000611d74565b60015b60ff16611d9e87611d906003548d61259f90919063ffffffff16565b6126f790919063ffffffff16565b6125e990919063ffffffff16565b90506001811015611dbc57600190505b81811415611e2957611e20611dff611df086611de260018761259f90919063ffffffff16565b61267190919063ffffffff16565b8861259f90919063ffffffff16565b611e128a8a61259f90919063ffffffff16565b61267190919063ffffffff16565b9250505061217f565b6000611e52611e41838861267190919063ffffffff16565b6003546125e990919063ffffffff16565b90506000611e90611e7f611e7060018761259f90919063ffffffff16565b8961267190919063ffffffff16565b6003546125e990919063ffffffff16565b905060008a905060008a9050611f06611ed7611ec88a611eba60018b61259f90919063ffffffff16565b61267190919063ffffffff16565b8c61259f90919063ffffffff16565b611ef8858511611ee75785611ee9565b845b8461259f90919063ffffffff16565b61267190919063ffffffff16565b96508184118015611f175750808411155b15611f9d57611f9a611f8b611f6a60008811611f34576000611f5b565b611f5a8b611f4c60018b61259f90919063ffffffff16565b61267190919063ffffffff16565b5b8d61259f90919063ffffffff16565b611f7d858861259f90919063ffffffff16565b61267190919063ffffffff16565b886125e990919063ffffffff16565b96505b5050600088905060008890506000889050848411156121775760008490506000611fe284611fd4898561259f90919063ffffffff16565b6126f790919063ffffffff16565b9050600181111561211557600061204c61203d61202e87612020886120126003548f61259f90919063ffffffff16565b61267190919063ffffffff16565b6126f790919063ffffffff16565b8861259f90919063ffffffff16565b8661267190919063ffffffff16565b905060006120c06120b16120a28761209460016120868c6120786003548d61259f90919063ffffffff16565b6126f790919063ffffffff16565b61259f90919063ffffffff16565b61267190919063ffffffff16565b8961259f90919063ffffffff16565b8761267190919063ffffffff16565b905061210c6120fd60026120ef6120e085876125e990919063ffffffff16565b8761267190919063ffffffff16565b6126f790919063ffffffff16565b8d6125e990919063ffffffff16565b9b505050612174565b6121716121626121536121448661213660028f61259f90919063ffffffff16565b61267190919063ffffffff16565b8861259f90919063ffffffff16565b8661267190919063ffffffff16565b8b6125e990919063ffffffff16565b99505b50505b505050505050505b95945050505050565b60085481565b600c60009054906101000a900473ffffffffffffffffffffffffffffffffffffffff1681565b60095481565b60065481565b600d60009054906101000a900473ffffffffffffffffffffffffffffffffffffffff1681565b60015481565b6121f4612597565b73ffffffffffffffffffffffffffffffffffffffff166000809054906101000a900473ffffffffffffffffffffffffffffffffffffffff1673ffffffffffffffffffffffffffffffffffffffff16146122b5576040517f08c379a00000000000000000000000000000000000000000000000000000000081526004018080602001828103825260208152602001807f4f776e61626c653a2063616c6c6572206973206e6f7420746865206f776e657281525060200191505060405180910390fd5b6122be81612beb565b50565b6000600f60008473ffffffffffffffffffffffffffffffffffffffff1673ffffffffffffffffffffffffffffffffffffffff16815260200190815260200160002090506000601060008573ffffffffffffffffffffffffffffffffffffffff1673ffffffffffffffffffffffffffffffffffffffff16815260200190815260200160002060003373ffffffffffffffffffffffffffffffffffffffff1673ffffffffffffffffffffffffffffffffffffffff168152602001908152602001600020905082816000015410156123fe576040517f08c379a00000000000000000000000000000000000000000000000000000000081526004018080602001828103825260128152602001807f77697468647261773a206e6f7420676f6f64000000000000000000000000000081525060200191505060405180910390fd5b6124078461178d565b600061244e8260010154612440600b546124328760020154876000015461267190919063ffffffff16565b6126f790919063ffffffff16565b61259f90919063ffffffff16565b90506000811115612464576124633382612741565b5b60008411156124b85761248484836000015461259f90919063ffffffff16565b82600001819055506124b733858773ffffffffffffffffffffffffffffffffffffffff16612ae99092919063ffffffff16565b5b6124e7600b546124d98560020154856000015461267190919063ffffffff16565b6126f790919063ffffffff16565b82600101819055508473ffffffffffffffffffffffffffffffffffffffff163373ffffffffffffffffffffffffffffffffffffffff167f9b1bfa7fa9ee420a16e124f794c35ac9f90472acc99140eb2f6447c714cad8eb866040518082815260200191505060405180910390a35050505050565b600e818154811061256857fe5b906000526020600020016000915054906101000a900473ffffffffffffffffffffffffffffffffffffffff1681565b600033905090565b60006125e183836040518060400160405280601e81526020017f536166654d6174683a207375627472616374696f6e206f766572666c6f770000815250612d2f565b905092915050565b600080828401905083811015612667576040517f08c379a000000000000000000000000000000000000000000000000000000000815260040180806020018281038252601b8152602001807f536166654d6174683a206164646974696f6e206f766572666c6f77000000000081525060200191505060405180910390fd5b8091505092915050565b60008083141561268457600090506126f1565b600082840290508284828161269557fe5b04146126ec576040517f08c379a00000000000000000000000000000000000000000000000000000000081526004018080602001828103825260218152602001806133496021913960400191505060405180910390fd5b809150505b92915050565b600061273983836040518060400160405280601a81526020017f536166654d6174683a206469766973696f6e206279207a65726f000000000000815250612def565b905092915050565b6000600c60009054906101000a900473ffffffffffffffffffffffffffffffffffffffff1673ffffffffffffffffffffffffffffffffffffffff166370a08231306040518263ffffffff1660e01b8152600401808273ffffffffffffffffffffffffffffffffffffffff1673ffffffffffffffffffffffffffffffffffffffff16815260200191505060206040518083038186803b1580156127e257600080fd5b505afa1580156127f6573d6000803e3d6000fd5b505050506040513d602081101561280c57600080fd5b810190808051906020019092919050505090508082111561291157600c60009054906101000a900473ffffffffffffffffffffffffffffffffffffffff1673ffffffffffffffffffffffffffffffffffffffff1663a9059cbb84836040518363ffffffff1660e01b8152600401808373ffffffffffffffffffffffffffffffffffffffff1673ffffffffffffffffffffffffffffffffffffffff16815260200182815260200192505050602060405180830381600087803b1580156128d057600080fd5b505af11580156128e4573d6000803e3d6000fd5b505050506040513d60208110156128fa57600080fd5b8101908080519060200190929190505050506129f7565b600c60009054906101000a900473ffffffffffffffffffffffffffffffffffffffff1673ffffffffffffffffffffffffffffffffffffffff1663a9059cbb84846040518363ffffffff1660e01b8152600401808373ffffffffffffffffffffffffffffffffffffffff1673ffffffffffffffffffffffffffffffffffffffff16815260200182815260200192505050602060405180830381600087803b1580156129ba57600080fd5b505af11580156129ce573d6000803e3d6000fd5b505050506040513d60208110156129e457600080fd5b8101908080519060200190929190505050505b505050565b612ae3846323b872dd60e01b858585604051602401808473ffffffffffffffffffffffffffffffffffffffff1673ffffffffffffffffffffffffffffffffffffffff1681526020018373ffffffffffffffffffffffffffffffffffffffff1673ffffffffffffffffffffffffffffffffffffffff1681526020018281526020019350505050604051602081830303815290604052907bffffffffffffffffffffffffffffffffffffffffffffffffffffffff19166020820180517bffffffffffffffffffffffffffffffffffffffffffffffffffffffff8381831617835250505050612eb5565b50505050565b612b9c8363a9059cbb60e01b8484604051602401808373ffffffffffffffffffffffffffffffffffffffff1673ffffffffffffffffffffffffffffffffffffffff16815260200182815260200192505050604051602081830303815290604052907bffffffffffffffffffffffffffffffffffffffffffffffffffffffff19166020820180517bffffffffffffffffffffffffffffffffffffffffffffffffffffffff8381831617835250505050612eb5565b505050565b6000612be383836040518060400160405280601881526020017f536166654d6174683a206d6f64756c6f206279207a65726f0000000000000000815250612fa4565b905092915050565b600073ffffffffffffffffffffffffffffffffffffffff168173ffffffffffffffffffffffffffffffffffffffff161415612c71576040517f08c379a00000000000000000000000000000000000000000000000000000000081526004018080602001828103825260268152602001806133236026913960400191505060405180910390fd5b8073ffffffffffffffffffffffffffffffffffffffff166000809054906101000a900473ffffffffffffffffffffffffffffffffffffffff1673ffffffffffffffffffffffffffffffffffffffff167f8be0079c531659141344cd1fd0a4f28419497f9722a3daafe3b4186f6b6457e060405160405180910390a3806000806101000a81548173ffffffffffffffffffffffffffffffffffffffff021916908373ffffffffffffffffffffffffffffffffffffffff16021790555050565b6000838311158290612ddc576040517f08c379a00000000000000000000000000000000000000000000000000000000081526004018080602001828103825283818151815260200191508051906020019080838360005b83811015612da1578082015181840152602081019050612d86565b50505050905090810190601f168015612dce5780820380516001836020036101000a031916815260200191505b509250505060405180910390fd5b5060008385039050809150509392505050565b60008083118290612e9b576040517f08c379a00000000000000000000000000000000000000000000000000000000081526004018080602001828103825283818151815260200191508051906020019080838360005b83811015612e60578082015181840152602081019050612e45565b50505050905090810190601f168015612e8d5780820380516001836020036101000a031916815260200191505b509250505060405180910390fd5b506000838581612ea757fe5b049050809150509392505050565b6060612f17826040518060400160405280602081526020017f5361666542455032303a206c6f772d6c6576656c2063616c6c206661696c65648152508573ffffffffffffffffffffffffffffffffffffffff166130659092919063ffffffff16565b9050600081511115612f9f57808060200190516020811015612f3857600080fd5b8101908080519060200190929190505050612f9e576040517f08c379a000000000000000000000000000000000000000000000000000000000815260040180806020018281038252602a8152602001806132f9602a913960400191505060405180910390fd5b5b505050565b6000808314158290613051576040517f08c379a00000000000000000000000000000000000000000000000000000000081526004018080602001828103825283818151815260200191508051906020019080838360005b83811015613016578082015181840152602081019050612ffb565b50505050905090810190601f1680156130435780820380516001836020036101000a031916815260200191505b509250505060405180910390fd5b5082848161305b57fe5b0690509392505050565b6060613074848460008561307d565b90509392505050565b606061308885613283565b6130fa576040517f08c379a000000000000000000000000000000000000000000000000000000000815260040180806020018281038252601d8152602001807f416464726573733a2063616c6c20746f206e6f6e2d636f6e747261637400000081525060200191505060405180910390fd5b600060608673ffffffffffffffffffffffffffffffffffffffff1685876040518082805190602001908083835b6020831061314a5780518252602082019150602081019050602083039250613127565b6001836020036101000a03801982511681845116808217855250505050505090500191505060006040518083038185875af1925050503d80600081146131ac576040519150601f19603f3d011682016040523d82523d6000602084013e6131b1565b606091505b509150915081156131c657809250505061327b565b6000815111156131d95780518082602001fd5b836040517f08c379a00000000000000000000000000000000000000000000000000000000081526004018080602001828103825283818151815260200191508051906020019080838360005b83811015613240578082015181840152602081019050613225565b50505050905090810190601f16801561326d5780820380516001836020036101000a031916815260200191505b509250505060405180910390fd5b949350505050565b60008060007fc5d2460186f7233c927e7db2dcc703c0e500b653ca82273b7bfad8045d85a47060001b9050833f91508082141580156132c557506000801b8214155b92505050919050565b6040518060800160405280600081526020016000815260200160008152602001600015158152509056fe5361666542455032303a204245503230206f7065726174696f6e20646964206e6f7420737563636565644f776e61626c653a206e6577206f776e657220697320746865207a65726f2061646472657373536166654d6174683a206d756c7469706c69636174696f6e206f766572666c6f77a264697066735822122099f54cca3a7732bfe2570df12ef31301f30c4542a7002f06a19aeeb2bcdc4fe864736f6c63430006060033536166654d6174683a206d756c7469706c69636174696f6e206f766572666c6f77",
  "immutableReferences": {},
  "source": "pragma solidity =0.6.6;\r\n\r\nimport '../../Testcoin-swap-lib/contracts/math/SafeMath.sol';\r\nimport '../../Testcoin-swap-lib/contracts/token/BEP20/IBEP20.sol';\r\nimport '../../Testcoin-swap-lib/contracts/token/BEP20/SafeBEP20.sol';\r\nimport '../../Testcoin-swap-lib/contracts/access/Ownable.sol';\r\n\r\nimport './TestcoinToken.sol';\r\n\r\ncontract TestcoinMaster is Ownable {\r\n    using SafeMath for uint256;\r\n    using SafeBEP20 for IBEP20;\r\n    // Info of each user.\r\n    struct UserInfo {\r\n        uint256 amount; // How many LP tokens the user has provided.\r\n        uint256 rewardDebt; // Reward debt. See explanation below.\r\n        //\r\n        // We do some fancy math here. Basically, any point in time, the amount of BAKEs\r\n        // entitled to a user but is pending to be distributed is:\r\n        //\r\n        //   pending reward = (userInfo.amount * pool.accBakePerShare) - userInfo.rewardDebt\r\n        //\r\n        // Whenever a user deposits or withdraws LP tokens to a pool. Here's what happens:\r\n        //   1. The pool's `accBakePerShare` (and `lastRewardBlock`) gets updated.\r\n        //   2. User receives the pending reward sent to his/her address.\r\n        //   3. User's `amount` gets updated.\r\n        //   4. User's `rewardDebt` gets updated.\r\n    }\r\n\r\n    // Info of each pool.\r\n    struct PoolInfo {\r\n        uint256 allocPoint; // How many allocation points assigned to this pool. BAKEs to distribute per block.\r\n        uint256 lastRewardBlock; // Last block number that BAKEs distribution occurs.\r\n        uint256 accBakePerShare; // Accumulated BAKEs per share, times 1e12. See below.\r\n        bool exists; //\r\n    }\r\n    // BAKE tokens created first block.\r\n    uint256 public bakeStartBlock;\r\n    // Total allocation points. Must be the sum of all allocation points in all pools.\r\n    uint256 public totalAllocPoint = 0;\r\n    // The block number when BAKE mining starts.\r\n    uint256 public startBlock;\r\n    // Block number when bonus BAKE period ends.\r\n    uint256 public bonusEndBlock;\r\n    // how many block size will change the common difference before bonus end.\r\n    uint256 public bonusBeforeBulkBlockSize;\r\n    // how many block size will change the common difference after bonus end.\r\n    uint256 public bonusEndBulkBlockSize;\r\n    // BAKE tokens created at bonus end block.\r\n    uint256 public bakeBonusEndBlock;\r\n    // max reward block\r\n    uint256 public maxRewardBlockNumber;\r\n    // bonus before the common difference\r\n    uint256 public bonusBeforeCommonDifference;\r\n    // bonus after the common difference\r\n    uint256 public bonusEndCommonDifference;\r\n    // Accumulated BAKEs per share, times 1e12.\r\n    uint256 public accBakePerShareMultiple = 1E12;\r\n    // The BAKE TOKEN!\r\n    TestcoinToken public bake;\r\n    // Dev address.\r\n    address public devAddr;\r\n    address[] public poolAddresses;\r\n    // Info of each pool.\r\n    mapping(address => PoolInfo) public poolInfoMap;\r\n    // Info of each user that stakes LP tokens.\r\n    mapping(address => mapping(address => UserInfo)) public poolUserInfoMap;\r\n\r\n    event Deposit(address indexed user, address indexed poolAddress, uint256 amount);\r\n    event Withdraw(address indexed user, address indexed poolAddress, uint256 amount);\r\n    event EmergencyWithdraw(address indexed user, address indexed poolAddress, uint256 amount);\r\n\r\n    constructor(\r\n        TestcoinToken _bake,\r\n        address _devAddr,\r\n        uint256 _bakeStartBlock,\r\n        uint256 _startBlock,\r\n        uint256 _bonusEndBlock,\r\n        uint256 _bonusBeforeBulkBlockSize,\r\n        uint256 _bonusBeforeCommonDifference,\r\n        uint256 _bonusEndCommonDifference\r\n    ) public {\r\n        bake = _bake;\r\n        devAddr = _devAddr;\r\n        bakeStartBlock = _bakeStartBlock;\r\n        startBlock = _startBlock;\r\n        bonusEndBlock = _bonusEndBlock;\r\n        bonusBeforeBulkBlockSize = _bonusBeforeBulkBlockSize;\r\n        bonusBeforeCommonDifference = _bonusBeforeCommonDifference;\r\n        bonusEndCommonDifference = _bonusEndCommonDifference;\r\n        bonusEndBulkBlockSize = bonusEndBlock.sub(startBlock);\r\n        // bake created when bonus end first block.\r\n        // (bakeStartBlock - bonusBeforeCommonDifference * ((bonusEndBlock-startBlock)/bonusBeforeBulkBlockSize - 1)) * bonusBeforeBulkBlockSize*(bonusEndBulkBlockSize/bonusBeforeBulkBlockSize) * bonusEndBulkBlockSize\r\n        bakeBonusEndBlock = bakeStartBlock\r\n            .sub(bonusEndBlock.sub(startBlock).div(bonusBeforeBulkBlockSize).sub(1).mul(bonusBeforeCommonDifference))\r\n            .mul(bonusBeforeBulkBlockSize)\r\n            .mul(bonusEndBulkBlockSize.div(bonusBeforeBulkBlockSize))\r\n            .div(bonusEndBulkBlockSize);\r\n        // max mint block number, _bakeInitBlock - (MAX-1)*_commonDifference = 0\r\n        // MAX = startBlock + bonusEndBulkBlockSize * (_bakeInitBlock/_commonDifference + 1)\r\n        maxRewardBlockNumber = startBlock.add(\r\n            bonusEndBulkBlockSize.mul(bakeBonusEndBlock.div(bonusEndCommonDifference).add(1))\r\n        );\r\n    }\r\n\r\n    // *** POOL MANAGER ***\r\n    function poolLength() external view returns (uint256) {\r\n        return poolAddresses.length;\r\n    }\r\n\r\n    // Add a new lp to the pool. Can only be called by the owner.\r\n    // XXX DO NOT add the same LP token more than once. Rewards will be messed up if you do.\r\n    function add(\r\n        uint256 _allocPoint,\r\n        address _pair,\r\n        bool _withUpdate\r\n    ) public onlyOwner {\r\n        if (_withUpdate) {\r\n            massUpdatePools();\r\n        }\r\n        PoolInfo storage pool = poolInfoMap[_pair];\r\n        require(!pool.exists, 'pool already exists');\r\n        uint256 lastRewardBlock = block.number > startBlock ? block.number : startBlock;\r\n        totalAllocPoint = totalAllocPoint.add(_allocPoint);\r\n        pool.allocPoint = _allocPoint;\r\n        pool.lastRewardBlock = lastRewardBlock;\r\n        pool.accBakePerShare = 0;\r\n        pool.exists = true;\r\n        poolAddresses.push(_pair);\r\n    }\r\n\r\n    // Update the given pool's BAKE allocation point. Can only be called by the owner.\r\n    function set(\r\n        address _pair,\r\n        uint256 _allocPoint,\r\n        bool _withUpdate\r\n    ) public onlyOwner {\r\n        if (_withUpdate) {\r\n            massUpdatePools();\r\n        }\r\n        PoolInfo storage pool = poolInfoMap[_pair];\r\n        require(pool.exists, 'pool not exists');\r\n        totalAllocPoint = totalAllocPoint.sub(pool.allocPoint).add(_allocPoint);\r\n        pool.allocPoint = _allocPoint;\r\n    }\r\n\r\n    function existsPool(address _pair) external view returns (bool) {\r\n        return poolInfoMap[_pair].exists;\r\n    }\r\n\r\n    // (_from,_to]\r\n    function getTotalRewardInfoInSameCommonDifference(\r\n        uint256 _from,\r\n        uint256 _to,\r\n        uint256 _bakeInitBlock,\r\n        uint256 _bulkBlockSize,\r\n        uint256 _commonDifference\r\n    ) public view returns (uint256 totalReward) {\r\n        if (_to < startBlock || maxRewardBlockNumber <= _from) {\r\n            return 0;\r\n        }\r\n        if (_from < startBlock) {\r\n            _from = startBlock;\r\n        }\r\n        if (maxRewardBlockNumber < _to) {\r\n            _to = maxRewardBlockNumber;\r\n        }\r\n        uint256 currentBulkNumber = _to.sub(startBlock).div(_bulkBlockSize).add(\r\n            _to.sub(startBlock).mod(_bulkBlockSize) > 0 ? 1 : 0\r\n        );\r\n        if (currentBulkNumber < 1) {\r\n            currentBulkNumber = 1;\r\n        }\r\n        uint256 fromBulkNumber = _from.sub(startBlock).div(_bulkBlockSize).add(\r\n            _from.sub(startBlock).mod(_bulkBlockSize) > 0 ? 1 : 0\r\n        );\r\n        if (fromBulkNumber < 1) {\r\n            fromBulkNumber = 1;\r\n        }\r\n        if (fromBulkNumber == currentBulkNumber) {\r\n            return _to.sub(_from).mul(_bakeInitBlock.sub(currentBulkNumber.sub(1).mul(_commonDifference)));\r\n        }\r\n        uint256 lastRewardBulkLastBlock = startBlock.add(_bulkBlockSize.mul(fromBulkNumber));\r\n        uint256 currentPreviousBulkLastBlock = startBlock.add(_bulkBlockSize.mul(currentBulkNumber.sub(1)));\r\n        {\r\n            uint256 tempFrom = _from;\r\n            uint256 tempTo = _to;\r\n            totalReward = tempTo\r\n                .sub(tempFrom > currentPreviousBulkLastBlock ? tempFrom : currentPreviousBulkLastBlock)\r\n                .mul(_bakeInitBlock.sub(currentBulkNumber.sub(1).mul(_commonDifference)));\r\n            if (lastRewardBulkLastBlock > tempFrom && lastRewardBulkLastBlock <= tempTo) {\r\n                totalReward = totalReward.add(\r\n                    lastRewardBulkLastBlock.sub(tempFrom).mul(\r\n                        _bakeInitBlock.sub(fromBulkNumber > 0 ? fromBulkNumber.sub(1).mul(_commonDifference) : 0)\r\n                    )\r\n                );\r\n            }\r\n        }\r\n        {\r\n            // avoids stack too deep errors\r\n            uint256 tempBakeInitBlock = _bakeInitBlock;\r\n            uint256 tempBulkBlockSize = _bulkBlockSize;\r\n            uint256 tempCommonDifference = _commonDifference;\r\n            if (currentPreviousBulkLastBlock > lastRewardBulkLastBlock) {\r\n                uint256 tempCurrentPreviousBulkLastBlock = currentPreviousBulkLastBlock;\r\n                // sum( [fromBulkNumber+1, currentBulkNumber] )\r\n                // 1/2 * N *( a1 + aN)\r\n                uint256 N = tempCurrentPreviousBulkLastBlock.sub(lastRewardBulkLastBlock).div(tempBulkBlockSize);\r\n                if (N > 1) {\r\n                    uint256 a1 = tempBulkBlockSize.mul(\r\n                        tempBakeInitBlock.sub(\r\n                            lastRewardBulkLastBlock.sub(startBlock).mul(tempCommonDifference).div(tempBulkBlockSize)\r\n                        )\r\n                    );\r\n                    uint256 aN = tempBulkBlockSize.mul(\r\n                        tempBakeInitBlock.sub(\r\n                            tempCurrentPreviousBulkLastBlock.sub(startBlock).div(tempBulkBlockSize).sub(1).mul(\r\n                                tempCommonDifference\r\n                            )\r\n                        )\r\n                    );\r\n                    totalReward = totalReward.add(N.mul(a1.add(aN)).div(2));\r\n                } else {\r\n                    totalReward = totalReward.add(\r\n                        tempBulkBlockSize.mul(tempBakeInitBlock.sub(currentBulkNumber.sub(2).mul(tempCommonDifference)))\r\n                    );\r\n                }\r\n            }\r\n        }\r\n    }\r\n\r\n    // Return total reward over the given _from to _to block.\r\n    function getTotalRewardInfo(uint256 _from, uint256 _to) public view returns (uint256 totalReward) {\r\n        if (_to <= bonusEndBlock) {\r\n            totalReward = getTotalRewardInfoInSameCommonDifference(\r\n                _from,\r\n                _to,\r\n                bakeStartBlock,\r\n                bonusBeforeBulkBlockSize,\r\n                bonusBeforeCommonDifference\r\n            );\r\n        } else if (_from >= bonusEndBlock) {\r\n            totalReward = getTotalRewardInfoInSameCommonDifference(\r\n                _from,\r\n                _to,\r\n                bakeBonusEndBlock,\r\n                bonusEndBulkBlockSize,\r\n                bonusEndCommonDifference\r\n            );\r\n        } else {\r\n            totalReward = getTotalRewardInfoInSameCommonDifference(\r\n                _from,\r\n                bonusEndBlock,\r\n                bakeStartBlock,\r\n                bonusBeforeBulkBlockSize,\r\n                bonusBeforeCommonDifference\r\n            )\r\n                .add(\r\n                getTotalRewardInfoInSameCommonDifference(\r\n                    bonusEndBlock,\r\n                    _to,\r\n                    bakeBonusEndBlock,\r\n                    bonusEndBulkBlockSize,\r\n                    bonusEndCommonDifference\r\n                )\r\n            );\r\n        }\r\n    }\r\n\r\n    // View function to see pending BAKEs on frontend.\r\n    function pendingBake(address _pair, address _user) external view returns (uint256) {\r\n        PoolInfo memory pool = poolInfoMap[_pair];\r\n        if (!pool.exists) {\r\n            return 0;\r\n        }\r\n        UserInfo storage userInfo = poolUserInfoMap[_pair][_user];\r\n        uint256 accBakePerShare = pool.accBakePerShare;\r\n        uint256 lpSupply = IBEP20(_pair).balanceOf(address(this));\r\n        if (block.number > pool.lastRewardBlock && lpSupply != 0 && pool.lastRewardBlock < maxRewardBlockNumber) {\r\n            uint256 totalReward = getTotalRewardInfo(pool.lastRewardBlock, block.number);\r\n            uint256 bakeReward = totalReward.mul(pool.allocPoint).div(totalAllocPoint);\r\n            accBakePerShare = accBakePerShare.add(bakeReward.mul(accBakePerShareMultiple).div(lpSupply));\r\n        }\r\n        return userInfo.amount.mul(accBakePerShare).div(accBakePerShareMultiple).sub(userInfo.rewardDebt);\r\n    }\r\n\r\n    // Update reward vairables for all pools. Be careful of gas spending!\r\n    function massUpdatePools() public {\r\n        uint256 length = poolAddresses.length;\r\n        for (uint256 i = 0; i < length; ++i) {\r\n            updatePool(poolAddresses[i]);\r\n        }\r\n    }\r\n\r\n    // Update reward variables of the given pool to be up-to-date.\r\n    function updatePool(address _pair) public {\r\n        PoolInfo storage pool = poolInfoMap[_pair];\r\n        if (!pool.exists || block.number <= pool.lastRewardBlock) {\r\n            return;\r\n        }\r\n        uint256 lpSupply = IBEP20(_pair).balanceOf(address(this));\r\n        if (lpSupply == 0) {\r\n            pool.lastRewardBlock = block.number;\r\n            return;\r\n        }\r\n        if (pool.lastRewardBlock >= maxRewardBlockNumber) {\r\n            return;\r\n        }\r\n        uint256 totalReward = getTotalRewardInfo(pool.lastRewardBlock, block.number);\r\n        uint256 bakeReward = totalReward.mul(pool.allocPoint).div(totalAllocPoint);\r\n        bake.mintTo(devAddr, bakeReward.div(100));\r\n        bake.mintTo(address(this), bakeReward);\r\n        pool.accBakePerShare = pool.accBakePerShare.add(bakeReward.mul(accBakePerShareMultiple).div(lpSupply));\r\n        pool.lastRewardBlock = block.number;\r\n    }\r\n\r\n    // Deposit LP tokens to TestcoinMaster for BAKE allocation.\r\n    function deposit(address _pair, uint256 _amount) public {\r\n        PoolInfo storage pool = poolInfoMap[_pair];\r\n        UserInfo storage userInfo = poolUserInfoMap[_pair][msg.sender];\r\n        updatePool(_pair);\r\n        if (userInfo.amount > 0) {\r\n            uint256 pending = userInfo.amount.mul(pool.accBakePerShare).div(accBakePerShareMultiple).sub(\r\n                userInfo.rewardDebt\r\n            );\r\n            if (pending > 0) {\r\n                safeBakeTransfer(msg.sender, pending);\r\n            }\r\n        }\r\n        IBEP20(_pair).safeTransferFrom(address(msg.sender), address(this), _amount);\r\n        userInfo.amount = userInfo.amount.add(_amount);\r\n        userInfo.rewardDebt = userInfo.amount.mul(pool.accBakePerShare).div(accBakePerShareMultiple);\r\n        emit Deposit(msg.sender, _pair, _amount);\r\n    }\r\n\r\n    // Withdraw LP tokens from TestcoinMaster.\r\n    function withdraw(address _pair, uint256 _amount) public {\r\n        PoolInfo storage pool = poolInfoMap[_pair];\r\n        UserInfo storage userInfo = poolUserInfoMap[_pair][msg.sender];\r\n        require(userInfo.amount >= _amount, 'withdraw: not good');\r\n        updatePool(_pair);\r\n        uint256 pending = userInfo.amount.mul(pool.accBakePerShare).div(accBakePerShareMultiple).sub(\r\n            userInfo.rewardDebt\r\n        );\r\n        if (pending > 0) {\r\n            safeBakeTransfer(msg.sender, pending);\r\n        }\r\n        if (_amount > 0) {\r\n            userInfo.amount = userInfo.amount.sub(_amount);\r\n            IBEP20(_pair).safeTransfer(address(msg.sender), _amount);\r\n        }\r\n        userInfo.rewardDebt = userInfo.amount.mul(pool.accBakePerShare).div(accBakePerShareMultiple);\r\n        emit Withdraw(msg.sender, _pair, _amount);\r\n    }\r\n\r\n    // Withdraw without caring about rewards. EMERGENCY ONLY.\r\n    function emergencyWithdraw(address _pair) public {\r\n        UserInfo storage userInfo = poolUserInfoMap[_pair][msg.sender];\r\n        IBEP20(_pair).safeTransfer(address(msg.sender), userInfo.amount);\r\n        emit EmergencyWithdraw(msg.sender, _pair, userInfo.amount);\r\n        userInfo.amount = 0;\r\n        userInfo.rewardDebt = 0;\r\n    }\r\n\r\n    // Safe bake transfer function, just in case if rounding error causes pool to not have enough BAKEs.\r\n    function safeBakeTransfer(address _to, uint256 _amount) internal {\r\n        uint256 bakeBal = bake.balanceOf(address(this));\r\n        if (_amount > bakeBal) {\r\n            bake.transfer(_to, bakeBal);\r\n        } else {\r\n            bake.transfer(_to, _amount);\r\n        }\r\n    }\r\n\r\n    // Update dev address by the previous dev.\r\n    function dev(address _devAddr) public {\r\n        require(msg.sender == devAddr, 'dev: wut?');\r\n        devAddr = _devAddr;\r\n    }\r\n}\r\n",
  "sourcePath": "C:/Users/Dell/documents/Myproject_test08/testcoin-swap-periphery/contracts/TestcoinMaster.sol",
  "compiler": {
    "name": "solc",
    "version": "0.6.6+commit.6c089d02.Emscripten.clang"
  },
  "schemaVersion": "3.4.1",
  "updatedAt": "2021-07-28T05:10:43.393Z",
  "devdoc": {
    "methods": {
      "owner()": {
        "details": "Returns the address of the current owner."
      },
      "renounceOwnership()": {
        "details": "Leaves the contract without owner. It will not be possible to call `onlyOwner` functions anymore. Can only be called by the current owner.      * NOTE: Renouncing ownership will leave the contract without an owner, thereby removing any functionality that is only available to the owner."
      },
      "transferOwnership(address)": {
        "details": "Transfers ownership of the contract to a new account (`newOwner`). Can only be called by the current owner."
      }
    }
  },
  "userdoc": {
    "methods": {}
  }
}